:020000040800F2
:100000000050002069220008C5110008CD11000829
:10001000CF110008D1110008D31100080000000022
:10002000000000000000000000000000D5110008E2
:10003000D711000800000000D9110008DB110008EA
:10004000B1220008B1220008B1220008B122000844
:10005000B1220008B1220008B1220008B122000834
:10006000B1220008B1220008B1220008B122000824
:10007000B1220008B1220008B1220008B122000814
:10008000B1220008B1220008B1220008B122000804
:10009000B1220008B1220008B1220008B1220008F4
:1000A000B1220008B1220008B1220008B1220008E4
:1000B000B1220008B1220008B1220008B1220008D4
:1000C000B1220008B1220008B1220008B1220008C4
:1000D000B1220008B1220008B1220008B1220008B4
:1000E000B1220008B1220008B1220008000000007F
:1000F0000000000000000000000000000000000000
:0C01000000000000000000005FF808F1A3
:1001100010B5054C237833B9044B13B10448AFF341
:1001200000800123237010BD3C0800200000000067
:100130008024000808B5034B1BB103490348AFF303
:10014000008008BD00000000400800208024000856
:1001500081F0004102E000BF83F0004330B54FEA78
:1001600041044FEA430594EA050F08BF90EA020FE5
:100170001FBF54EA000C55EA020C7FEA645C7FEA78
:10018000655C00F0E2804FEA5454D4EB5555B8BF9B
:100190006D420CDD2C4480EA020281EA030382EA0C
:1001A000000083EA010180EA020281EA0303362D9E
:1001B00088BF30BD11F0004F4FEA01314FF4801C71
:1001C0004CEA113102D0404261EB410113F0004F83
:1001D0004FEA03334CEA133302D0524263EB43033A
:1001E00094EA050F00F0A780A4F10104D5F1200ED8
:1001F0000DDB02FA0EFC22FA05F2801841F1000133
:1002000003FA0EF2801843FA05F359410EE0A5F106
:1002100020050EF1200E012A03FA0EFC28BF4CF037
:10022000020C43FA05F3C01851EBE37101F00045ED
:1002300007D54FF0000EDCF1000C7EEB00006EEBFA
:100240000101B1F5801F1BD3B1F5001F0CD3490884
:100250005FEA30004FEA3C0C04F101044FEA4452DB
:1002600012F5800F80F09A80BCF1004F08BF5FEA62
:10027000500C50F1000041EB045141EA050130BD42
:100280005FEA4C0C404141EB0101013C28BFB1F554
:10029000801FE9D291F0000F04BF01460020B1FA9F
:1002A00081F308BF2033A3F10B03B3F120020CDA72
:1002B0000C3208DD02F1140CC2F10C0201FA0CF050
:1002C00021FA02F10CE002F11402D8BFC2F1200CB5
:1002D00001FA02F120FA0CFCDCBF41EA0C0190406B
:1002E000E41AA2BF01EB0451294330BD6FEA0404B4
:1002F0001F3C1CDA0C340EDC04F11404C4F120029F
:1003000020FA04F001FA02F340EA030021FA04F3B0
:1003100045EA030130BDC4F10C04C4F1200220FA07
:1003200002F001FA04F340EA0300294630BD21FA45
:1003300004F0294630BD94F0000F83F4801306BF0B
:1003400081F480110134013D4EE77FEA645C18BFFF
:100350007FEA655C29D094EA050F08BF90EA020F96
:1003600005D054EA000C04BF1946104630BD91EA8E
:10037000030F1EBF0021002030BD5FEA545C05D191
:100380004000494128BF41F0004130BD14F58004D0
:100390003CBF01F5801130BD01F0004545F0FE4144
:1003A00041F470014FF0000030BD7FEA645C1ABF79
:1003B000194610467FEA655C1CBF0B46024650EAB0
:1003C000013406BF52EA033591EA030F41F40021DC
:1003D00030BD00BF90F0000F04BF0021704730B562
:1003E0004FF4806404F132044FF000054FF0000137
:1003F00050E700BF90F0000F04BF0021704730B5F8
:100400004FF4806404F1320410F0004548BF4042CC
:100410004FF000013EE700BF42004FEAE2014FEA21
:1004200031014FEA02701FBF12F07F4393F07F4FFC
:1004300081F06051704732F07F4208BF704793F0FF
:100440007F4F04BF41F40021704730B54FF4607412
:1004500001F0004521F000411CE700BF50EA010215
:1004600008BF704730B54FF000050AE050EA0102BE
:1004700008BF704730B511F0004502D5404261EB2E
:1004800041014FF4806404F132045FEA915C3FF46F
:10049000D8AE4FF003025FEADC0C18BF03325FEA0C
:1004A000DC0C18BF033202EBDC02C2F1200300FABD
:1004B00003FC20FA02F001FA03FE40EA0E0021FAE2
:1004C00002F11444BDE600BF70B54FF0FF0C4CF4D0
:1004D000E06C1CEA11541DBF1CEA135594EA0C0F82
:1004E00095EA0C0F00F0DEF82C4481EA030621EABD
:1004F0004C5123EA4C5350EA013518BF52EA0335F8
:1005000041F4801143F4801338D0A0FB02CE4FF0A9
:100510000005E1FB02E506F00042E0FB03E54FF0D9
:100520000006E1FB03569CF0000F18BF4EF0010ED1
:10053000A4F1FF04B6F5007F64F5407404D25FEACD
:100540004E0E6D4146EB060642EAC62141EA555180
:100550004FEAC52040EA5E504FEACE2EB4F1FD0CC2
:1005600088BFBCF5E06F1ED8BEF1004F08BF5FEA40
:10057000500E50F1000041EB045170BD06F00046F2
:1005800046EA010140EA020081EA0301B4EB5C049F
:10059000C2BFD4EB0C0541EA045170BD41F4801197
:1005A0004FF0000E013C00F3AB8014F1360FDEBFBC
:1005B000002001F0004170BDC4F10004203C35DA98
:1005C0000C341BDC04F11404C4F1200500FA05F31B
:1005D00020FA04F001FA05F240EA020001F00042BC
:1005E00021F0004110EBD37021FA04F642EB060132
:1005F0005EEA430E08BF20EAD37070BDC4F10C045C
:10060000C4F1200500FA04F320FA05F001FA04F21F
:1006100040EA020001F0004110EBD37041F100010B
:100620005EEA430E08BF20EAD37070BDC4F1200516
:1006300000FA05F24EEA020E20FA04F301FA05F27E
:1006400043EA020321FA04F001F0004121FA04F226
:1006500020EA020000EBD3705EEA430E08BF20EAF6
:10066000D37070BD94F0000F0FD101F00046400030
:1006700041EB010111F4801F08BF013CF7D041EAB2
:10068000060195F0000F18BF704703F000465200B6
:1006900043EB030313F4801F08BF013DF7D043EA87
:1006A0000603704794EA0C0F0CEA135518BF95EA3D
:1006B0000C0F0CD050EA410618BF52EA4306D1D1C4
:1006C00081EA030101F000414FF0000070BD50EAE3
:1006D000410606BF1046194652EA430619D094EA6D
:1006E0000C0F02D150EA013613D195EA0C0F05D157
:1006F00052EA03361CBF104619460AD181EA0301AB
:1007000001F0004141F0FE4141F470014FF0000062
:1007100070BD41F0FE4141F4780170BD70B54FF0FD
:10072000FF0C4CF4E06C1CEA11541DBF1CEA13557D
:1007300094EA0C0F95EA0C0F00F0A7F8A4EB05045F
:1007400081EA030E52EA03354FEA013100F0888056
:100750004FEA03334FF0805545EA131343EA12631F
:100760004FEA022245EA111545EA10654FEA0026D4
:100770000EF000419D4208BF964244F1FD0404F58D
:10078000407402D25B084FEA3202B61A65EB0305E9
:100790005B084FEA32024FF480104FF4002CB6EBA6
:1007A000020E75EB030E22BFB61A754640EA0C0026
:1007B0005B084FEA3202B6EB020E75EB030E22BF66
:1007C000B61A754640EA5C005B084FEA3202B6EBA7
:1007D000020E75EB030E22BFB61A754640EA9C0066
:1007E0005B084FEA3202B6EB020E75EB030E22BF36
:1007F000B61A754640EADC0055EA060E18D04FEAF4
:10080000051545EA16754FEA06164FEAC30343EA93
:1008100052734FEAC2025FEA1C1CC0D111F4801F60
:100820000BD141EA00014FF000004FF0004CB6E759
:1008300011F4801F04BF01430020B4F1FD0C88BFF8
:10084000BCF5E06F3FF6AFAEB5EB030C04BFB6EB03
:10085000020C5FEA500C50F1000041EB045170BDF6
:100860000EF0004E4EEA113114EB5C04C2BFD4EB23
:100870000C0541EA045170BD41F480114FF0000EA7
:10088000013C90E645EA060E8DE60CEA135594EA23
:100890000C0F08BF95EA0C0F3FF43BAF94EA0C0F26
:1008A0000AD150EA01347FF434AF95EA0C0F7FF49B
:1008B00025AF104619462CE795EA0C0F06D152EAEF
:1008C00003353FF4FDAE1046194622E750EA4106D3
:1008D00018BF52EA43067FF4C5AE50EA41047FF4E4
:1008E0000DAF52EA43057FF4EBAE12E74FEA410247
:1008F000B2F1E04324BFB3F5001CDCF1FE5C0DD97E
:1009000001F0004C4FEAC0024CEA5070B2F1004FC7
:1009100040EB830008BF20F00100704711F0804FCA
:1009200021D113F13872BCBF01F00040704741F48F
:1009300080114FEA5252C2F11802C2F1200C10FA93
:100940000CF320FA02F018BF40F001004FEAC12377
:100950004FEAD32303FA0CFC40EA0C0023FA02F31B
:100960004FEA4303CCE77FEA625307D150EA0133F1
:100970001EBF4FF0FE4040F44000704701F00040C1
:1009800040F0FE4040F40000704700BF08B500F0A2
:100990009DFD08BDF0B585B007460E4615461C46C0
:1009A0006B460E223B21D020FFF7F0FF58BB9DF88D
:1009B00000209DF8013043EA02233B809DF802208D
:1009C0009DF8033043EA022333809DF804209DF80C
:1009D000053043EA02232B809DF808209DF809305A
:1009E00043EA022323809DF80A209DF80B3043EA56
:1009F00002230A9A13809DF80C209DF80D3043EADB
:100A000002230B9A138005B0F0BD08B500F03AFD43
:100A100008BD08B5C20002F0F8021B21D020FFF784
:100A2000F4FF08BD08B5C20002F0F8021C21D02076
:100A3000FFF7EBFF08BD08B5BB2809D861280DD822
:100A400029280DD813280DD809280DD9052200E032
:100A500001221A21D020FFF7D8FF08BD0222F8E7B3
:100A60000322F6E70422F4E70622F2E710B5B0F518
:100A70007A7F04D80446032803D8042401E04FF405
:100A80007A744FF47A7292FBF4F2D2B2013AD2B293
:100A90001921D020FFF7B9FF6008FFF7CCFF10BD88
:100AA00000B583B00DF1070200F0C6FC9DF8070009
:100AB00003B05DF804FB10B500F0BEFB7521D0203B
:100AC000FFF7EEFF80226B21D020FFF79EFF044648
:100AD000642000F0D1FD00226B21D020FFF795FFAC
:100AE0000444E4B20320FFF794FF0444E4B201207D
:100AF000FFF798FF0444E4B23220FFF7B7FF044445
:100B0000E4B202221A21D020FFF77FFF0444E4B2AE
:100B100000223821D020FFF778FF0444E4B20022FD
:100B20006A21D020FFF771FF0444E4B201226B2157
:100B3000D020FFF76AFF0444E4B200226C21D020E9
:100B4000FFF763FF2044C0B210BD000000000000AA
:100B500010B586B003AB01930DF10E03009304AB07
:100B60000DF1120205A90DF11600FFF713FFBDF9F3
:100B70001600FFF73FFC34A3D3E90023FFF7A4FCE2
:100B800000224FF07C53FFF79FFCFFF7AFFE304C85
:100B90002060BDF91400FFF72DFC2BA3D3E900233F
:100BA000FFF792FC00224FF07C53FFF78DFCFFF71C
:100BB0009DFE6060BDF91200FFF71CFC22A3D3E983
:100BC0000023FFF781FC00224FF07C53FFF77CFCF1
:100BD000FFF78CFEA060BDF91000FFF70BFC0022B0
:100BE0001C4BFFF771FC00224FF07C53FFF76CFCAD
:100BF000FFF77CFEE060BDF90E00FFF7FBFB002273
:100C0000144BFFF761FC00224FF07C53FFF75CFCB4
:100C1000FFF76CFE2061BDF90C00FFF7EBFB002233
:100C20000C4BFFF751FC00224FF07C53FFF74CFCBC
:100C3000FFF75CFE60611C21204600F00DF806B055
:100C400010BD00BFAFF300809A99999999994340DC
:100C50005808002000409F4070B582B005460E46FF
:100C60004FF60343ADF804304FF47F73ADF8003016
:100C70000A4C6423022201A9204601F088FA642369
:100C8000B2B22946204601F082FA64230222694664
:100C9000204601F07CFA02B070BD00BFF40C0020C9
:100CA0002DE9F04188B0002404940594069407943B
:100CB000264B9A6942F020029A619A6902F020025A
:100CC0000192019A9A6942F004029A619A6902F0CB
:100CD00004020292029A9A6942F008029A619B69A0
:100CE00003F008030393039BDFF86480012248F2BA
:100CF0002001404600F04BFE164D012243F21A013E
:100D0000284600F044FE48F220030493012605968D
:100D100006940227079704A9404600F01FFD049798
:100D200005960694079704A9284600F017FD43F29C
:100D300018030493059606940323079304A92846F1
:100D400000F00CFD08B0BDE8F08100BF00100240CB
:100D500000080140000C014072B6FEE700B591B0FA
:100D60002822002106A801F0C9FA0023019302936A
:100D7000039304930593012206924FF48033079363
:100D80000A9202220D920E934FF4E0130F9306A8DD
:100D900000F01AFE90B90F23019302210291002363
:100DA00003934FF480620492059301A801F052F876
:100DB00030B901F011F811B05DF804FBFFF7CCFF7A
:100DC000FFF7CAFF00B583B000F032FCFFF7C6FFA3
:100DD000FFF766FF00F0B0FB00F066F90123019316
:100DE0000C4B0093402380220021084600F004F9B8
:100DF000FFF761FE28B1322000F03EFCFFF7A8FEAD
:100E0000F9E70022202100F1804000F5843000F055
:100E1000BEFDF0E70000002000BF704710B50A4C8F
:100E20004FF4005323614FF480532361FFF7F4FF25
:100E30004FF000532361FFF7EFFF4FF08053236122
:100E4000FFF7EAFF10BD00BF000C014010B5064CD3
:100E50004FF0005323614FF480532361FFF7DCFF11
:100E60004FF40053236110BD000C014010B5084C35
:100E70004FF400532361FFF7CFFF4FF480532361FA
:100E8000FFF7CAFF4FF080532361FFF7C5FF10BD86
:100E9000000C014070B50446002512E00E4B4FF0E7
:100EA00000521A61FFF7B8FF0B4E4FF480533361C5
:100EB000FFF7B2FF4FF0805333616400E4B20135B5
:100EC000EDB2072D07D814F0800FE7D0024B4FF496
:100ED00000521A61E6E770BD000C014038B50446C7
:100EE0000D46FFF79BFF7820FFF7D4FFFFF7BEFF0B
:100EF00065B14020FFF7CEFFFFF7B8FF2046FFF7B0
:100F0000C9FFFFF7B3FFFFF7A1FF38BD0020FFF7D0
:100F1000C1FFF1E738B5002510E0184B03EBC4031F
:100F2000585DFFF7B7FFFFF7A1FF0134E4B214F0FB
:100F3000800FF2D0FFF78AFF0135EDB2072D1BD8E5
:100F4000A5F150000021C0B2FFF7C8FF00210846FC
:100F5000FFF7C4FF00211020FFF7C0FFFFF75EFF7F
:100F60007820FFF797FFFFF781FF4020FFF792FF00
:100F7000FFF77CFF0024DAE738BD00BF74080020CB
:100F800008B500200BE0094A02EBC302002111540E
:100F90000133DBB213F0800FF5D00130C0B2072867
:100FA00001D80023F6E7FFF7B5FF08BD740800205D
:100FB0004FEAD10C01F0070101238B40DBB242B1B3
:100FC0000C4A02EBC00010F80C20134300F80C3060
:100FD0007047084A02EBC00010F80C20D243D2B28E
:100FE00000F80C20134300F80C30DB4300F80C3001
:100FF000704700BF740800202DE9F04F85B00190C4
:101000000D4693469DF83C8013F0070218BF01225D
:1010100002EBD303039300910746002302939A4601
:1010200036E0B8FA88F2520929463846FFF7C0FF81
:1010300076080135EDB20134E4B2072C08D816F079
:10104000010FEED0424629463846FFF7B1FFEFE7E1
:101050000137FFB2019BFB1A5B450FD009F1010973
:101060005FFA89F9009DD9450ED20E9B13F80A60EC
:101070000AF1010A1FFA8AFA0024DEE7009B08330E
:10108000DBB20093019FE9E7029B0133DBB20293DD
:10109000029B039A934202D24FF00009E3E7FFF765
:1010A00039FF05B0BDE8F08F08B50021AE20FFF78D
:1010B00015FF00210846FFF711FF00211020FFF760
:1010C0000DFF00214020FFF709FF00218120FFF7DD
:1010D00005FF0021CF20FFF701FF0021A120FFF72E
:1010E000FDFE0021C820FFF7F9FE0021A620FFF732
:1010F000F5FE0021A820FFF7F1FE00213F20FFF7B9
:10110000EDFE0021D320FFF7E9FE00210846FFF79E
:10111000E5FE0021D520FFF7E1FE00218020FFF74A
:10112000DDFE0021D920FFF7D9FE0021F120FFF7D5
:10113000D5FE0021DA20FFF7D1FE00211220FFF7B3
:10114000CDFE0021DB20FFF7C9FE00213020FFF794
:10115000C5FE00212020FFF7C1FE00210220FFF77D
:10116000BDFE00218D20FFF7B9FE00211420FFF7FE
:10117000B5FEFFF705FF0021AF20FFF7AFFE08BD6A
:1011800082B00E4B9A6942F001029A619A6902F0AC
:1011900001020092009ADA6942F08052DA61DB695A
:1011A00003F080530193019B054A536823F0E063E9
:1011B00043F00073536002B0704700BF001002405C
:1011C0000000014008B500F023FFFEE7FEE7FEE760
:1011D000FEE7FEE770477047704708B500F03AFA3F
:1011E00008BD704700B585B00023009301930293BA
:1011F000039308230093012302936946024800F0F9
:10120000ADFA05B05DF804FB000C014000B585B0F7
:101210000023009301930293039308230093012377
:101220000193032303936946024800F097FA05B03F
:101230005DF804FB000C014010B5064C01221021A2
:10124000204600F0A4FB01220821204600F09FFB6D
:1012500010BD00BF000C014010B5FFF7D7FF0B4CCD
:1012600001220821204600F092FB01221021204695
:1012700000F08DFB00220821204600F088FB0022B0
:101280001021204600F083FB10BD00BF000C014080
:1012900010B5FFF7BBFF0B4C00221021204600F0D9
:1012A00076FB00220821204600F071FB012210216C
:1012B000204600F06CFB01220821204600F067FB6D
:1012C00010BD00BF000C014038B5FFF78BFF104C7C
:1012D00001220821204600F05AFB0122102120465D
:1012E00000F055FB00240821094800F049FB0546A1
:1012F00038B10134E4B2FA2CF5D9FFF7C9FF012562
:1013000004E000221021024800F041FB284638BDCD
:10131000000C014010B50C4C00221021204600F0BA
:1013200036FBFFF773FF00220821204600F02FFB59
:1013300001221021204600F02AFB00221021204625
:1013400000F025FB10BD00BF000C014010B50C4C97
:1013500000221021204600F01AFBFFF757FF012260
:101360000821204600F013FB01221021204600F046
:101370000EFB00221021204600F009FB10BD00BF2B
:10138000000C014070B50446FFF740FF0022102119
:10139000124800F0FCFA002513E0002208210F4853
:1013A00000F0F5FA6400E4B20C4E01221021304640
:1013B00000F0EDFA00221021304600F0E8FA013585
:1013C000EDB2072D08D814F0800FE6D001220821D5
:1013D000024800F0DCFAE5E770BD00BF000C0140F8
:1013E000F8B50746FFF7FEFE0024254601E001356B
:1013F000EDB2072D15D80F4E00221021304600F017
:10140000C6FA01221021304600F0C1FA6400E4B2AD
:101410000821304600F0B4FA0028E8D00134E4B2E4
:10142000E5E71FB1FFF776FF2046F8BDFFF78EFF17
:10143000FAE700BF000C0140F8B504460E46154619
:10144000FFF70AFF2046FFF79DFFFFF73DFFA8B912
:1014500007463046FFF796FFFFF736FFFFF7FCFE23
:10146000601CC0B2FFF78EFFFFF72EFF0020FFF7D2
:10147000B7FF2870FFF70CFF3846F8BDFFF708FFED
:101480000127F9E770B504460E461546FFF7E4FE5E
:101490002046FFF777FFFFF717FF78B93046FFF7D1
:1014A00071FFFFF711FF2846FFF76CFFFFF70CFFF6
:1014B000044638B9FFF7ECFE204670BDFFF7E8FEA2
:1014C0000124F9E7FFF7E4FE0124F5E72DE9F041F7
:1014D0000446884615461E46FFF7BEFE2046FFF727
:1014E00051FFFFF7F1FE78B907464046FFF74AFF84
:1014F000FFF7EAFEFFF7B0FE601CC0B2FFF742FF45
:10150000FFF7E2FE3C4609E0FFF7C2FE012710E0CC
:101510000120FFF765FF30550134E4B2AC4206D23A
:101520006B1E9C42F4D10020FFF75AFFF3E7FFF750
:10153000AFFE3846BDE8F08108B50A480A4B0360A3
:101540004FF4E133436000238360C36003610C22E6
:1015500042618361C36100F0EBFD00B908BDFFF794
:10156000FBFBFBE7F40C00200048004010B586B000
:10157000002302930393049305930268174B9A4246
:1015800001D006B010BD03F5E433DA6942F48022DD
:10159000DA61DA6902F480220092009A9A6942F0D4
:1015A00008029A619B6903F008030193019B4FF4C1
:1015B000806302930223039303230593084C02A93B
:1015C000204600F0CBF84FF400630293002303930E
:1015D000049302A9204600F0C1F8D2E70048004079
:1015E000000C014010B504460E4B18784FF47A7386
:1015F000B3FBF0F30C4A1068B0FBF3F000F09AF87C
:1016000068B90F2C01D901200AE0002221464FF0D1
:10161000FF3000F057F8054B1C60002000E001206F
:1016200010BD00BF040400200004002008040020B6
:1016300008B5074A136843F010031360032000F055
:101640002FF80F20FFF7CEFFFFF79AFD002008BD0F
:1016500000200240034A1168034B1B780B441360BF
:10166000704700BF380D002004040020014B1868AB
:10167000704700BF380D002038B50446FFF7F6FF6D
:101680000546B4F1FF3F02D0044B1B781C44FFF722
:10169000EDFF401BA042FAD338BD00BF0404002078
:1016A000074AD36823F4E0631B041B0C000200F418
:1016B000E060034343F0BF6343F40033D3607047FB
:1016C00000ED00E000B5194BDB68C3F30223C3F162
:1016D000070CBCF1040F28BF4FF0040C03F1040EFB
:1016E000BEF1060F18D9033B4FF0FF3E0EFA0CFC7B
:1016F00021EA0C0199400EFA03F322EA030319438D
:1017000000280BDB0901C9B200F1604000F561401F
:1017100080F800135DF804FB0023E5E700F00F00FC
:101720000901C9B2024B1954F4E700BF00ED00E013
:1017300014ED00E00138B0F1807F0BD24FF0E023D0
:101740005861054AF02182F8231000209861072291
:101750001A6170470120704700ED00E070B582B05B
:101760000024A446A6E0804DAA4210D007D97F4DA0
:10177000AA420CD005F58035AA4208D013E0A5F5A1
:101780008015AA4203D005F57025AA4207D18A68C0
:10179000002A58D0012A51D04361082403E0A5F55E
:1017A0008015AA42F3D0BEF1FF0F4ED80646BEF117
:1017B000FF0F4CD84FEA8C0233680F25954023EA7F
:1017C000050304FA02F2134333604B6813F0805FA1
:1017D0006ED0674B9A6942F001029A619B6903F0EF
:1017E00001030193019B4FEA9C02951C614B53F846
:1017F00025600CF003039D000F23AB4026EA03068F
:101800005D4B984229D003F58063984200F08E80AA
:1018100003F58063984200F08B8003F58063984263
:1018200019D004231AE0CC68BDE7CC680434BAE7C9
:10183000CC680834B7E7CC680C34B4E703610824FB
:10184000B1E70024AFE70424ADE7061DAFE7ACF134
:1018500008029200B0E7032300E00023AB403343CB
:101860000232444D45F822304B6813F4803F61D07A
:10187000424A136843EA0E0313604B6813F4003FB7
:101880005ED03E4A536843EA0E0353604B6813F43C
:10189000801F5BD0394A936843EA0E0393604B681C
:1018A00013F4001F58D0354AD36843EA0E03D360BF
:1018B0000CF1010C0A6832FA0CF353D0012303FA3D
:1018C0000CF302EA030E33EA0202F1D14A68122A4B
:1018D0003FF649AF122A3FF666AF01A555F822F050
:1018E0008F1700082718000831180008431800084F
:1018F000A7170008A7170008A7170008A7170008D0
:10190000A7170008A7170008A7170008A7170008BF
:10191000A7170008A7170008A7170008A7170008AF
:10192000A71700082B18000837180008012395E7AF
:10193000022393E7114A136823EA0E0313609CE71E
:101940000E4A536823EA0E0353609FE70B4A9368DD
:1019500023EA0E039360A2E7084AD36823EA0E0342
:10196000D360A5E702B070BD000022100000311066
:101970000010024000000140000801400004014046
:101980008368194201D001207047002070470AB1D6
:1019900001617047090401617047000082B0084B83
:1019A0001B68084AA2FB03235B0A00FB03F30193B5
:1019B00000BF019B5A1E0192002BF9D102B0704763
:1019C00000040020D34D6210002800F0F18170B5B2
:1019D00082B00446036813F0010F2CD0994B5B686A
:1019E00003F00C03042B1DD0964B5B6803F00C0333
:1019F000082B12D06368B3F5803F41D0002B55D13E
:101A000003F1804303F504331A6822F480321A602C
:101A10001A6822F480221A6037E08A4B5B6813F45C
:101A2000803FE7D0874B1B6813F4003F03D0636807
:101A3000002B00F0BF81236813F0020F75D0814B9B
:101A40005B6813F00C0F5FD07E4B5B6803F00C03F8
:101A5000082B54D02369002B00F08A807A4B012296
:101A60001A60FFF703FE0546764B1B6813F0020F62
:101A700075D1FFF7FBFD401B0228F5D903209EE13D
:101A8000704A136843F480331360636843B3FFF70D
:101A9000EDFD05466B4B1B6813F4003FCBD1FFF700
:101AA000E5FD401B6428F5D9032088E1B3F5A02F9C
:101AB00009D0644B1A6822F480321A601A6822F442
:101AC00080221A60E1E703F18043A3F53C331A68F2
:101AD00042F480221A601A6842F480321A60D4E715
:101AE000FFF7C4FD0546574B1B6813F4003FA2D017
:101AF000FFF7BCFD401B6428F5D903205FE1514B83
:101B00005B6813F4803FA5D14E4B1B6813F0020FA6
:101B100003D02369012B40F04F814A4A136823F018
:101B2000F803616943EAC1031360236813F0080FE7
:101B300033D0A369002B5CD0434B0122C3F880242F
:101B4000FFF794FD05463F4B5B6A13F0020F21D16E
:101B5000FFF78CFD401B0228F5D903202FE1394AFD
:101B6000136823F0F803616943EAC1031360DCE7FB
:101B7000354B00221A60FFF779FD0546314B1B6893
:101B800013F0020FD1D0FFF771FD401B0228F5D9E9
:101B9000032014E10120FFF701FF236813F0040F75
:101BA00000F09680274BDB6913F0805F34D1254B22
:101BB000DA6942F08052DA61DB6903F08053019305
:101BC000019B0125214B1B6813F4807F26D0E3681D
:101BD000012B3DD0002B53D103F1804303F5043397
:101BE0001A6A22F001021A621A6A22F004021A62C8
:101BF00033E0154B0022C3F88024FFF737FD05467C
:101C0000104B5B6A13F0020FC7D0FFF72FFD401B8C
:101C10000228F5D90320D2E00025D3E70B4A136848
:101C200043F480731360FFF721FD0646074B1B68E2
:101C300013F4807FCBD1FFF719FD801B6428F5D901
:101C40000320BCE00010024000004242007000404F
:101C50005F4A136A43F001031362E36833B3FFF78B
:101C600005FD06465A4B1B6A13F0020F2FD1FFF7F2
:101C7000FDFC801B41F288339842F3D903209EE09B
:101C8000052B09D0524B1A6A22F001021A621A6A15
:101C900022F004021A62E0E74D4B1A6A42F0040295
:101CA0001A621A6A42F001021A62D6E7FFF7DEFCF6
:101CB0000646474B1B6A13F0020F08D0FFF7D6FC0D
:101CC000801B41F288339842F3D9032077E0E5B9CD
:101CD000E369002B72D03E4A526802F00C02082AD7
:101CE00056D0022B17D03B4B00221A66FFF7BEFCE2
:101CF0000446374B1B6813F0007F47D0FFF7B6FC54
:101D0000001B0228F5D9032059E0314AD36923F09A
:101D10008053D361DCE72F4B00221A66FFF7A6FC45
:101D200005462B4B1B6813F0007F06D0FFF79EFC87
:101D3000401B0228F5D9032041E0236AB3F5803F18
:101D40001AD023494B6823F47413226A606A024351
:101D500013434B601F4B01221A66FFF787FC0446B2
:101D60001B4B1B6813F0007F0ED1FFF77FFC001B9D
:101D70000228F5D9032022E0154A536823F40033E2
:101D8000A1680B435360DCE7002018E0002016E058
:101D9000012B16D00E4B5B6803F48031226A91420E
:101DA00011D103F47013626A93420ED1002006E051
:101DB00001207047012002E0012000E0002002B075
:101DC00070BD0120FBE70120F9E70120F7E700BF24
:101DD0000010024000004242014B0122DA647047C9
:101DE0000000424286B0174B0FCB0DF1180C0CE9E6
:101DF0000F0040F20123ADF80430134B5B6803F091
:101E00000C02082A02D0114806B07047C3F383427F
:101E100018326A4412F8100C13F4803F0DD00A4BAC
:101E20005B68C3F3404318336B4413F8143C074A10
:101E300002FB00F0B0FBF3F0E6E7054B03FB00F01C
:101E4000E2E700BFB02400080010024000127A0050
:101E500000093D00002800F0A08070B50D46044642
:101E6000524B1B6803F007038B420BD24F4A136897
:101E700023F007030B431360136803F007038B423F
:101E800040F08D80236813F0020F17D013F0040F79
:101E900004D0474A536843F4E0635360236813F067
:101EA000080F04D0424A536843F460535360404AD9
:101EB000536823F0F003A1680B435360236813F0C9
:101EC000010F31D06368012B20D0022B25D0384A76
:101ED000126812F0020F64D035494A6822F00302FA
:101EE00013434B60FFF7C2FB0646314B5B6803F0C0
:101EF0000C036268B3EB820F16D0FFF7B7FB801BB1
:101F000041F288339842F0D9032045E0284A12680C
:101F100012F4003FE0D101203EE0254A126812F0A1
:101F2000007FD9D1012037E0204B1B6803F0070365
:101F3000AB420AD91D4A136823F007032B431360F1
:101F4000136803F00703AB422DD1236813F0040F8D
:101F500006D0174A536823F4E063E1680B435360EB
:101F6000236813F0080F07D0114A536823F4605315
:101F7000216943EAC1035360FFF734FF0C4B5B68F0
:101F8000C3F303130B4AD35CD8400B4B18600B4BC5
:101F90001868FFF727FB002070BD01207047012063
:101FA000FAE70120F8E70120F6E700BF0020024031
:101FB00000100240982400080004002008040020BB
:101FC000014B1868704700BF0004002008B5FFF7F8
:101FD000F7FF044B5B68C3F30223034AD35CD8408A
:101FE00008BD00BF00100240A824000808B5FFF794
:101FF000E7FF044B5B68C3F3C223034AD35CD840BA
:1020000008BD00BF00100240A8240008704700006F
:1020100008B5064B9B6813F0800F00D108BDFFF791
:10202000F5FF024B80229A72F8E700BF00100240D1
:1020300010B504460268136923F44053C1680B438A
:10204000136183680269134342691A430168CB68CC
:1020500023F4B05323F00C031343CB60026853699D
:1020600023F4407381690B4353610268134B9A4216
:1020700020D0FFF7ABFF024602EB820202EB8202A6
:1020800063689B00B2FBF3F20D48A0FB02314909E3
:10209000642303FB11231B013233A0FB03235B09E1
:1020A00003F0F00202EB011203F00F032168134466
:1020B0008B6010BDFFF79AFF0246DDE70038014054
:1020C0001F85EB512DE9F84305460F461646994604
:1020D000DDF820802C68246837EA04030CBF4FF039
:1020E000010C4FF0000CB4451FD1B8F1FF3FF1D007
:1020F000B8F1000F05D0FFF7B9FAA0EB0900404591
:10210000E8D92A68D36823F4D073D3602A68536966
:1021100023F001035361202385F83D3085F83E30DC
:10212000002385F83C30032000E00020BDE8F88360
:1021300058B310B5044690F83D300BB3242384F80F
:102140003D302268D36823F40053D3602046FFF764
:102150006FFF2268136923F4904313612268536967
:1021600023F02A0353612268D36843F40053D360F9
:1021700000202064202384F83D3084F83E3010BDD8
:1021800080F83C30FFF7F2F9D8E7012070472DE9DD
:10219000F04182B01E4690F83D30DBB2202B54D186
:1021A00004460D469046002953D0002A53D090F89B
:1021B0003C30012B51D0012380F83C3000230364D4
:1021C000212380F83D30FFF751FA0746A4F8248018
:1021D000A4F82680A368B3F5805F05D04FF000080F
:1021E000002384F83C3012E0236913B14FF000085B
:1021F000F6E7A8460025F3E738F8023B2268C3F368
:1022000008035360E28C92B2013A92B2E284E38C0A
:102210009BB273B100963B46002280212046FFF717
:1022200051FFE0B9002DE7D015F8012B23685A6063
:10223000E8E700963B46002240212046FFF742FF98
:1022400078B9202384F83D3000E0022002B0BDE8D8
:10225000F0810120FAE70120F8E70220F6E70320E9
:10226000F4E70320F2E700000C480D490D4A002373
:1022700002E0D458C4500433C4188C42F9D30A4A3B
:102280000A4C002301E013600432A242FBD3FEF7A4
:10229000A8FF00F00FF8FEF795FD70470000002042
:1022A0003C080020D42400083C080020400D0020F9
:1022B000FEE7000070B50D4E0D4D761BB61006D032
:1022C000002455F8043B01349847A642F9D1094E41
:1022D000094D00F0D5F8761BB61006D0002455F84D
:1022E000043B01349847A642F9D170BDC8240008C8
:1022F000C8240008D0240008C8240008830730B58B
:1023000048D0541E002A3FD00346CAB201E0013C27
:102310003AD303F8012B9D07F9D1032C2DD9CDB267
:1023200045EA05250F2C45EA054536D9A4F11002EA
:1023300022F00F0C03F1200EE6444FEA121C03F1C9
:10234000100242E9045542E9025510327245F8D1B3
:102350000CF1010214F00C0F03EB021204F00F0C4D
:1023600013D0ACF1040323F003030433134442F805
:10237000045B9342FBD10CF003042CB1CAB21C44A1
:1023800003F8012B9C42FBD130BD64461346002C60
:10239000F4D1F9E703461446BFE71A46A446E0E73E
:1023A000024B13B1024800F005B87047000000006E
:1023B000C1230008002301461A46184600F01AB847
:1023C00038B5084B084D5B1B9C1007D0043B1D44DF
:1023D000013C55F804399847002CF9D1BDE8384044
:1023E00000F054B8D4240008D0240008704700BF7F
:1023F000704700BF2DE9F047DFF87CA00646DAF809
:10240000000098460F469146FFF7F0FF1B4B1B68F4
:10241000D3F8484124B365681F2D26DC5EB96B1CD8
:102420000235DAF80000636044F82570FFF7E0FF3A
:102430000020BDE8F087012304EB8501C1F88890F6
:10244000D4F88821AB401A43022EC4F88821C1F881
:102450000881E4D1D4F88C211343C4F88C31DEE731
:1024600003F5A674C3F84841D5E7DAF80000FFF792
:10247000BFFF4FF0FF30DCE738080020C42400081D
:10248000F8B500BFF8BC08BC9E467047F8B500BF61
:08249000F8BC08BC9E46704731
:10249800000000000000000001020304060708090C
:1024A80000000000010203040203040506070809EE
:1024B8000A0B0C0D0E0F1010000000001004002075
:0824C800A12300083501000802
:0424D00011010008EE
:1024D4000003050911FF118905C300E000F000F8AD
:1024E400000000000000004428FF11AA440000007E
:1024F40000000000000000000000000000000000D8
:1025040000000000000000000000000000000000C7
:1025140000000000000000000000000000000000B7
:102524000000000000000000000083013844829293
:1025340092740183000000000000007C44FF017DD0
:102544007D7D017D7D7D7D017D7D7D7D7D01FF0026
:102554000000000000010001000100010001000171
:102564000000000000000000000101000000000065
:102574000000000000000000000000000000000057
:102584000000000000000000000000000000000047
:102594000000000000000000000000000000000037
:1025A4000000000000000000000001010000000025
:1025B4000000010100000000000000000001010112
:1025C40001010101010101010101010101010100F8
:1025D40000000000000000000000000000000000F7
:1025E4000000000000000000000000003F3F030363
:1025F400F31311111111111101F111618101010183
:10260400816111F1010101014141F1010101010166
:10261400C1211111111121C1010101014141F10136
:102624000101010101010101011111111111D33342
:1026340003033F3F00000000000000000000000012
:102644000000000000000000000000000000000086
:102654000000000000000000000000000000000076
:10266400000000000000000000000000E0E00000A6
:102674007F01010101010100007F0000010618062D
:102684000100007F0000000040407F404000000047
:102694001F2040404040201F0000000040407F4079
:1026A4004000000000600000000040300C03000007
:1026B4000000E0E000000000000000000000000056
:1026C4000000000000000000000000000000000006
:1026D40000000000000000000000000000000000F6
:1026E40000000000000000000000000007070606CC
:1026F4000606040404844444448404048444444492
:102704008404040484C40404040484444444840405
:1027140004040404844444448404040404048444F5
:1027240044448404048444444484040404040606A1
:10273400060607070000000000000000000000007B
:102744000000000000000000000000000000000085
:102754000000000000000000000000000000000075
:102764000000000000000000000000000000000065
:102774000000000000101814121100000F101010B7
:102784000F000000101F10000000081012120D00AE
:10279400001800000D1212120D000018000010188D
:1027A400141211000010181412110000000000008F
:1027B4000000000000000000000000000000000015
:1027C4000000000000000000000000000000000005
:1027D40000000000000000000000000000000000F5
:1027E40000000000000000000000000000000000E5
:1027F40000000000000000000000000000000000D5
:1028040000000000000000000000000080808080C4
:1028140080808080000000000000000000000000B4
:1028240000000000000000000000000000000000A4
:102834000000000000000000000000000000000094
:102844000000000000000000000000000000000084
:10285400007F030C300C037F0000385454580000F0
:102864007C04047800003C40407C00000000000030
:102874000000000000000000000000000000000054
:10288400000000000000000000000000FFAAAAAA47
:10289400280800FF00000000000000000000000005
:1028A4000000000000000000000000000000000024
:1028B4000000000000000000007F030C300C037FC8
:1028C4000000264949493200007F020408107F00B5
:1028D4000024F400010000001000000000000000CB
:1028E40000000000FC06002064070020CC07002044
:1028F40000000000000000000000000000000000D4
:1029040000000000000000000000000000000000C3
:1029140000000000000000000000000000000000B3
:1029240000000000000000000000000000000000A3
:102934000000000000000000000000000000000093
:102944000000000000000000000000000000000083
:102954000000000000000000000000000000000073
:102964000000000000000000000000000000000063
:102974000000000000000000000000000000000053
:102984000000000000000000010000000000000042
:102994000E33CDAB34126DE6ECDE05000B00000007
:1029A4000000000000000000000000000000000023
:1029B4000000000000000000000000000000000013
:1029C4000000000000000000000000000000000003
:1029D40000000000000000000000000000000000F3
:0C2D040000000000000000003C0D00205A
:040000050800226964
:00000001FF
