:020000040800F2
:10000000005000207D570008A91F0008B11F0008FC
:10001000B31F0008B51F0008B71F0008000000004C
:10002000000000000000000000000000B91F0008F0
:10003000BB1F000800000000BD1F0008BF1F000814
:10004000C5570008C5570008C5570008C557000820
:10005000C5570008C5570008C5570008C557000810
:10006000C5570008C5570008C5570008C557000800
:10007000C5570008C5570008C5570008C5570008F0
:10008000C5570008C5570008C5570008C5570008E0
:10009000C5570008C5570008C5570008C5570008D0
:1000A000C5570008C5570008C5570008C5570008C0
:1000B000C5570008C5570008C5570008C5570008B0
:1000C000C5570008C5570008C5570008C5570008A0
:1000D000C5570008C5570008C5570008C557000890
:1000E000C5570008C5570008C557000800000000A4
:1000F0000000000000000000000000000000000000
:0C01000000000000000000005FF808F1A3
:1001100010B5054C237833B9044B13B10448AFF341
:1001200000800123237010BDF009002000000000B2
:1001300068C6000808B5034B1BB103490348AFF379
:10014000008008BD00000000F409002068C6000817
:1001500081F0004102E000BF83F0004330B54FEA78
:1001600041044FEA430594EA050F08BF90EA020FE5
:100170001FBF54EA000C55EA020C7FEA645C7FEA78
:10018000655C00F0E2804FEA5454D4EB5555B8BF9B
:100190006D420CDD2C4480EA020281EA030382EA0C
:1001A000000083EA010180EA020281EA0303362D9E
:1001B00088BF30BD11F0004F4FEA01314FF4801C71
:1001C0004CEA113102D0404261EB410113F0004F83
:1001D0004FEA03334CEA133302D0524263EB43033A
:1001E00094EA050F00F0A780A4F10104D5F1200ED8
:1001F0000DDB02FA0EFC22FA05F2801841F1000133
:1002000003FA0EF2801843FA05F359410EE0A5F106
:1002100020050EF1200E012A03FA0EFC28BF4CF037
:10022000020C43FA05F3C01851EBE37101F00045ED
:1002300007D54FF0000EDCF1000C7EEB00006EEBFA
:100240000101B1F5801F1BD3B1F5001F0CD3490884
:100250005FEA30004FEA3C0C04F101044FEA4452DB
:1002600012F5800F80F09A80BCF1004F08BF5FEA62
:10027000500C50F1000041EB045141EA050130BD42
:100280005FEA4C0C404141EB0101013C28BFB1F554
:10029000801FE9D291F0000F04BF01460020B1FA9F
:1002A00081F308BF2033A3F10B03B3F120020CDA72
:1002B0000C3208DD02F1140CC2F10C0201FA0CF050
:1002C00021FA02F10CE002F11402D8BFC2F1200CB5
:1002D00001FA02F120FA0CFCDCBF41EA0C0190406B
:1002E000E41AA2BF01EB0451294330BD6FEA0404B4
:1002F0001F3C1CDA0C340EDC04F11404C4F120029F
:1003000020FA04F001FA02F340EA030021FA04F3B0
:1003100045EA030130BDC4F10C04C4F1200220FA07
:1003200002F001FA04F340EA0300294630BD21FA45
:1003300004F0294630BD94F0000F83F4801306BF0B
:1003400081F480110134013D4EE77FEA645C18BFFF
:100350007FEA655C29D094EA050F08BF90EA020F96
:1003600005D054EA000C04BF1946104630BD91EA8E
:10037000030F1EBF0021002030BD5FEA545C05D191
:100380004000494128BF41F0004130BD14F58004D0
:100390003CBF01F5801130BD01F0004545F0FE4144
:1003A00041F470014FF0000030BD7FEA645C1ABF79
:1003B000194610467FEA655C1CBF0B46024650EAB0
:1003C000013406BF52EA033591EA030F41F40021DC
:1003D00030BD00BF90F0000F04BF0021704730B562
:1003E0004FF4806404F132044FF000054FF0000137
:1003F00050E700BF90F0000F04BF0021704730B5F8
:100400004FF4806404F1320410F0004548BF4042CC
:100410004FF000013EE700BF42004FEAE2014FEA21
:1004200031014FEA02701FBF12F07F4393F07F4FFC
:1004300081F06051704732F07F4208BF704793F0FF
:100440007F4F04BF41F40021704730B54FF4607412
:1004500001F0004521F000411CE700BF50EA010215
:1004600008BF704730B54FF000050AE050EA0102BE
:1004700008BF704730B511F0004502D5404261EB2E
:1004800041014FF4806404F132045FEA915C3FF46F
:10049000D8AE4FF003025FEADC0C18BF03325FEA0C
:1004A000DC0C18BF033202EBDC02C2F1200300FABD
:1004B00003FC20FA02F001FA03FE40EA0E0021FAE2
:1004C00002F11444BDE600BF70B54FF0FF0C4CF4D0
:1004D000E06C1CEA11541DBF1CEA135594EA0C0F82
:1004E00095EA0C0F00F0DEF82C4481EA030621EABD
:1004F0004C5123EA4C5350EA013518BF52EA0335F8
:1005000041F4801143F4801338D0A0FB02CE4FF0A9
:100510000005E1FB02E506F00042E0FB03E54FF0D9
:100520000006E1FB03569CF0000F18BF4EF0010ED1
:10053000A4F1FF04B6F5007F64F5407404D25FEACD
:100540004E0E6D4146EB060642EAC62141EA555180
:100550004FEAC52040EA5E504FEACE2EB4F1FD0CC2
:1005600088BFBCF5E06F1ED8BEF1004F08BF5FEA40
:10057000500E50F1000041EB045170BD06F00046F2
:1005800046EA010140EA020081EA0301B4EB5C049F
:10059000C2BFD4EB0C0541EA045170BD41F4801197
:1005A0004FF0000E013C00F3AB8014F1360FDEBFBC
:1005B000002001F0004170BDC4F10004203C35DA98
:1005C0000C341BDC04F11404C4F1200500FA05F31B
:1005D00020FA04F001FA05F240EA020001F00042BC
:1005E00021F0004110EBD37021FA04F642EB060132
:1005F0005EEA430E08BF20EAD37070BDC4F10C045C
:10060000C4F1200500FA04F320FA05F001FA04F21F
:1006100040EA020001F0004110EBD37041F100010B
:100620005EEA430E08BF20EAD37070BDC4F1200516
:1006300000FA05F24EEA020E20FA04F301FA05F27E
:1006400043EA020321FA04F001F0004121FA04F226
:1006500020EA020000EBD3705EEA430E08BF20EAF6
:10066000D37070BD94F0000F0FD101F00046400030
:1006700041EB010111F4801F08BF013CF7D041EAB2
:10068000060195F0000F18BF704703F000465200B6
:1006900043EB030313F4801F08BF013DF7D043EA87
:1006A0000603704794EA0C0F0CEA135518BF95EA3D
:1006B0000C0F0CD050EA410618BF52EA4306D1D1C4
:1006C00081EA030101F000414FF0000070BD50EAE3
:1006D000410606BF1046194652EA430619D094EA6D
:1006E0000C0F02D150EA013613D195EA0C0F05D157
:1006F00052EA03361CBF104619460AD181EA0301AB
:1007000001F0004141F0FE4141F470014FF0000062
:1007100070BD41F0FE4141F4780170BD70B54FF0FD
:10072000FF0C4CF4E06C1CEA11541DBF1CEA13557D
:1007300094EA0C0F95EA0C0F00F0A7F8A4EB05045F
:1007400081EA030E52EA03354FEA013100F0888056
:100750004FEA03334FF0805545EA131343EA12631F
:100760004FEA022245EA111545EA10654FEA0026D4
:100770000EF000419D4208BF964244F1FD0404F58D
:10078000407402D25B084FEA3202B61A65EB0305E9
:100790005B084FEA32024FF480104FF4002CB6EBA6
:1007A000020E75EB030E22BFB61A754640EA0C0026
:1007B0005B084FEA3202B6EB020E75EB030E22BF66
:1007C000B61A754640EA5C005B084FEA3202B6EBA7
:1007D000020E75EB030E22BFB61A754640EA9C0066
:1007E0005B084FEA3202B6EB020E75EB030E22BF36
:1007F000B61A754640EADC0055EA060E18D04FEAF4
:10080000051545EA16754FEA06164FEAC30343EA93
:1008100052734FEAC2025FEA1C1CC0D111F4801F60
:100820000BD141EA00014FF000004FF0004CB6E759
:1008300011F4801F04BF01430020B4F1FD0C88BFF8
:10084000BCF5E06F3FF6AFAEB5EB030C04BFB6EB03
:10085000020C5FEA500C50F1000041EB045170BDF6
:100860000EF0004E4EEA113114EB5C04C2BFD4EB23
:100870000C0541EA045170BD41F480114FF0000EA7
:10088000013C90E645EA060E8DE60CEA135594EA23
:100890000C0F08BF95EA0C0F3FF43BAF94EA0C0F26
:1008A0000AD150EA01347FF434AF95EA0C0F7FF49B
:1008B00025AF104619462CE795EA0C0F06D152EAEF
:1008C00003353FF4FDAE1046194622E750EA4106D3
:1008D00018BF52EA43067FF4C5AE50EA41047FF4E4
:1008E0000DAF52EA43057FF4EBAE12E74FF0FF3C49
:1008F00006E000BF4FF0010C02E000BF4FF0010C1A
:100900004DF804CD4FEA410C7FEA6C5C4FEA430C92
:1009100018BF7FEA6C5C1BD001B050EA410C0CBFE1
:1009200052EA430C91EA030F02BF90EA020F002043
:10093000704710F1000F91EA030F58BF994208BFAA
:1009400090422CBFD8176FEAE37040F00100704767
:100950004FEA410C7FEA6C5C02D150EA013C07D1BE
:100960004FEA430C7FEA6C5CD6D152EA033CD3D009
:100970005DF8040B704700BF8446104662468C4603
:100980001946634600E000BF01B5FFF7B7FF002836
:1009900048BF10F1000F01BD4DF808EDFFF7F4FF5F
:1009A0000CBF012000205DF808FB00BF4DF808EDEA
:1009B000FFF7EAFF34BF012000205DF808FB00BF0D
:1009C0004DF808EDFFF7E0FF94BF012000205DF82F
:1009D00008FB00BF4DF808EDFFF7CEFF94BF0120E4
:1009E00000205DF808FB00BF4DF808EDFFF7C4FFDD
:1009F00034BF012000205DF808FB00BF4FEA410230
:100A000012F5001215D211D56FF47873B3EB625260
:100A100012D94FEAC12343F0004343EA505311F087
:100A2000004F23FA02F018BF404270474FF0000019
:100A3000704750EA013005D111F0004008BF6FF057
:100A4000004070474FF00000704700BF4A0011D2CD
:100A500012F5001211D20DD56FF47873B3EB625218
:100A60000ED44FEAC12343F0004343EA505323FA24
:100A700002F070474FF00000704750EA013002D199
:100A80004FF0FF3070474FF0000070474FEA4102CF
:100A9000B2F1E04324BFB3F5001CDCF1FE5C0DD9DC
:100AA00001F0004C4FEAC0024CEA5070B2F1004F26
:100AB00040EB830008BF20F00100704711F0804F29
:100AC00021D113F13872BCBF01F00040704741F4EE
:100AD00080114FEA5252C2F11802C2F1200C10FAF2
:100AE0000CF320FA02F018BF40F001004FEAC123D6
:100AF0004FEAD32303FA0CFC40EA0C0023FA02F37A
:100B00004FEA4303CCE77FEA625307D150EA01334F
:100B10001EBF4FF0FE4040F44000704701F000401F
:100B200040F0FE4040F40000704700BF80F00040FD
:100B300002E000BF81F0004142001FBF5FEA4103B5
:100B400092EA030F7FEA226C7FEA236C6AD04FEAB5
:100B50001262D2EB1363C1BFD218414048404140FA
:100B6000B8BF5B42192B88BF704710F0004F40F4AC
:100B7000000020F07F4018BF404211F0004F41F4C8
:100B8000000121F07F4118BF494292EA030F3FD094
:100B9000A2F1010241FA03FC10EB0C00C3F12003A7
:100BA00001FA03F100F0004302D5494260EB400036
:100BB000B0F5000F13D3B0F1807F06D340084FEAA1
:100BC000310102F10102FE2A51D2B1F1004F40EB96
:100BD000C25008BF20F0010040EA030070474900FE
:100BE00040EB0000013A28BFB0F5000FEDD2B0FA9B
:100BF00080FCACF1080CB2EB0C0200FA0CF0AABFBE
:100C000000EBC25052421843BCBFD040184370475B
:100C100092F0000F81F4000106BF80F40000013261
:100C2000013BB5E74FEA41037FEA226C18BF7FEA38
:100C3000236C21D092EA030F04D092F0000F08BF7A
:100C40000846704790EA010F1CBF0020704712F061
:100C50007F4F04D1400028BF40F00040704712F1A0
:100C600000723CBF00F50000704700F0004343F005
:100C7000FE4040F4000070477FEA226216BF08463B
:100C80007FEA23630146420206BF5FEA412390EAFE
:100C9000010F40F4800070474FF0000304E000BFF4
:100CA00010F0004348BF40425FEA000C08BF7047A5
:100CB00043F0964301464FF000001CE050EA010269
:100CC00008BF70474FF000030AE000BF50EA01027E
:100CD00008BF704711F0004302D5404261EB41016B
:100CE0005FEA010C02BF84460146002043F0B64390
:100CF00008BFA3F18053A3F50003BCFA8CF2083AB5
:100D0000A3EBC25310DB01FA02FC634400FA02FCBD
:100D1000C2F12002BCF1004F20FA02F243EB0200C4
:100D200008BF20F00100704702F1200201FA02FC26
:100D3000C2F1200250EA4C0021FA02F243EB020019
:100D400008BF20EADC7070474FF0FF0C1CEAD0525D
:100D50001EBF1CEAD15392EA0C0F93EA0C0F6FD01E
:100D60001A4480EA010C400218BF5FEA41211ED0FC
:100D70004FF0006343EA501043EA5111A0FB0131E8
:100D80000CF00040B1F5000F3EBF490041EAD371BD
:100D90005B0040EA010062F17F02FD2A1DD8B3F139
:100DA000004F40EBC25008BF20F00100704790F0A8
:100DB000000F0CF0004C08BF49024CEA502040EAFA
:100DC00051207F3AC2BFD2F1FF0340EAC2507047C0
:100DD00040F400004FF00003013A5DDC12F1190FFE
:100DE000DCBF00F000407047C2F10002410021FA70
:100DF00002F1C2F1200200FA02FC5FEA310040F188
:100E0000000053EA4C0308BF20EADC70704792F000
:100E1000000F00F0004C02BF400010F4000F013A38
:100E2000F9D040EA0C0093F0000F01F0004C02BF33
:100E3000490011F4000F013BF9D041EA0C018FE7A2
:100E40000CEAD15392EA0C0F18BF93EA0C0F0AD0A8
:100E500030F0004C18BF31F0004CD8D180EA0100CE
:100E600000F00040704790F0000F17BF90F0004F67
:100E7000084691F0000F91F0004F14D092EA0C0F49
:100E800001D142020FD193EA0C0F03D14B0218BFDC
:100E9000084608D180EA010000F0004040F0FE4022
:100EA00040F40000704740F0FE4040F440007047BE
:100EB0004FF0FF0C1CEAD0521EBF1CEAD15392EA3D
:100EC0000C0F93EA0C0F69D0A2EB030280EA010C2D
:100ED00049024FEA402037D04FF0805343EA1111C6
:100EE00043EA10130CF000408B4238BF5B0042F124
:100EF0007D024FF4000C8B4224BF5B1A40EA0C00C9
:100F0000B3EB510F24BFA3EB510340EA5C00B3EBFA
:100F1000910F24BFA3EB910340EA9C00B3EBD10FE8
:100F200024BFA3EBD10340EADC001B0118BF5FEA3A
:100F30001C1CE0D1FD2A3FF650AF8B4240EBC25063
:100F400008BF20F0010070470CF0004C4CEA502024
:100F50007F32C2BFD2F1FF0340EAC250704740F473
:100F600000004FF00003013A37E792F0000F00F065
:100F7000004C02BF400010F4000F013AF9D040EAE3
:100F80000C0093F0000F01F0004C02BF490011F477
:100F9000000F013BF9D041EA0C0195E70CEAD1536F
:100FA00092EA0C0F08D142027FF47DAF93EA0C0F56
:100FB0007FF470AF084676E793EA0C0F04D14B023A
:100FC0003FF44CAF08466EE730F0004C18BF31F0EC
:100FD000004CCAD130F000427FF45CAF31F00043E6
:100FE0007FF43CAF5FE700BF4FF0FF3C06E000BF7F
:100FF0004FF0010C02E000BF4FF0010C4DF804CDA2
:101000004FEA40024FEA41037FEA226C18BF7FEAB1
:10101000236C11D001B052EA530C18BF90EA010FB3
:1010200058BFB2EB030088BFC81738BF6FEAE17042
:1010300018BF40F0010070477FEA226C02D15FEADE
:10104000402C05D17FEA236CE4D15FEA412CE1D04A
:101050005DF8040B704700BF844608466146FFE711
:101060000FB5FFF7C9FF002848BF10F1000F0FBDF3
:101070004DF808EDFFF7F4FF0CBF012000205DF8EC
:1010800008FB00BF4DF808EDFFF7EAFF34BF012071
:1010900000205DF808FB00BF4DF808EDFFF7E0FF0A
:1010A00094BF012000205DF808FB00BF4DF808ED5B
:1010B000FFF7D2FF94BF012000205DF808FB00BFBE
:1010C0004DF808EDFFF7C8FF34BF012000205DF8A0
:1010D00008FB00BF4FEA4002B2F1FE4F0FD34FF0C2
:1010E0009E03B3EB12620DD94FEA002343F0004395
:1010F00010F0004F23FA02F018BF404270474FF043
:101100000000704712F1610F01D1420205D110F0C9
:10111000004008BF6FF0004070474FF0000070477C
:1011200042000ED2B2F1FE4F0BD34FF09E03B3EB51
:10113000126209D44FEA002343F0004323FA02F07D
:1011400070474FF00000704712F1610F01D1420269
:1011500002D14FF0FF3070474FF00000704700BFE2
:101160007BB972B90029BEBF00204FF0004106E0F4
:1011700008BF00281CBF6FF000414FF0FF3000F0A7
:10118000A9B9ADF1080C6DE904CE002909DB002BEB
:101190001ADB00F035F8DDF804E0DDE9022304B0E5
:1011A0007047404261EB4101002B1BDB00F028F847
:1011B000DDF804E0DDE9022304B0404261EB4101C7
:1011C000524263EB43037047524263EB430300F028
:1011D00017F8DDF804E0DDE9022304B0404261EBDA
:1011E00041017047524263EB430300F009F8DDF818
:1011F00004E0DDE9022304B0524263EB430370478D
:101200002DE9F047089E0D4604468846002B4DD137
:101210008A42944668D9B2FA82F252B101FA02F3D4
:10122000C2F1200120FA01F10CFA02FC41EA0308A4
:1012300094404FEA1C41B8FBF1F71FFA8CFE01FB0A
:10124000178807FB0EF0230C43EA084398420AD99B
:101250001CEB030307F1FF3580F01E81984240F23A
:101260001B81023F63441B1AB3FBF1F001FB1033F7
:1012700000FB0EFEA4B244EA0344A6450AD91CEBC7
:10128000040400F1FF3380F00981A64540F2068195
:10129000644402380021A4EB0E0440EA07401EB16A
:1012A0000023D440C6E90043BDE8F0878B4208D94B
:1012B000002E00F0EE800021C6E900050846BDE8DA
:1012C000F087B3FA83F100294AD1AB4202D38242BC
:1012D00000F2FC80841A65EB030301209846002E7F
:1012E000E2D0C6E90048DFE702B9FFDEB2FA82F2D7
:1012F000002A40F09180A1EB0C0001214FEA1C472D
:101300001FFA8CFEB0FBF7F307FB1300250C45EA30
:1013100000450EFB03F0A84208D91CEB050503F1BC
:10132000FF3802D2A84200F2CE8043462D1AB5FB08
:10133000F7F007FB10550EFB00FEA4B244EA05448B
:10134000A64508D91CEB040400F1FF3502D2A645DE
:1013500000F2B6802846A4EB0E0440EA03409EE764
:10136000C1F120078B4022FA07FC4CEA030C25FA56
:1013700007FA4FEA1C49BAFBF9F820FA07F309FB10
:1013800018AA8D401FFA8CFE1D4300FA01F308FBDA
:101390000EF02C0C44EA0A44A04202FA01F20BD9E6
:1013A0001CEB040408F1FF3A80F08880A04240F270
:1013B0008580A8F102086444241AB4FBF9F009FB03
:1013C000104400FB0EFEADB245EA0444A64508D920
:1013D0001CEB040400F1FF356CD2A6456AD9023833
:1013E000644440EA0840A0FB0295A4EB0E04AC4222
:1013F000C846AE4656D353D0002E69D0B3EB080290
:1014000064EB0E0422FA01F304FA07F71F43CC4001
:10141000C6E90074002147E70CFA02FCC2F1200182
:1014200025FA01F34FEA1C4720FA01F195400D43DC
:10143000B3FBF7F107FB11331FFA8CFE280C40EACF
:10144000034001FB0EF3834204FA02F408D91CEBBB
:10145000000001F1FF382FD283422DD902396044B8
:10146000C01AB0FBF7F307FB1300ADB245EA004525
:1014700003FB0EF0A84208D91CEB050503F1FF3869
:1014800016D2A84214D9023B6544281A43EA014106
:1014900038E73146304607E72F46E4E61846F9E6D6
:1014A0004B45A9D2B9EB020865EB0C0E0138A3E756
:1014B0004346EAE7284694E74146D1E7D0467BE732
:1014C0006444023847E7023B65442FE7084606E7D5
:1014D0003146E9E6704700BF844641EA000313F055
:1014E000030349D1403A23D30B6803604B68436040
:1014F0008B688360CB68C3600B6903614B69436190
:101500008B698361CB69C3610B6A03624B6A436277
:101510008B6A8362CB6AC3620B6B03634B6B43635F
:101520008B6B8363CB6BC36340304031403ADBD27B
:1015300030320BD30B6803604B6843608B68836069
:10154000CB68C36010301031103AF3D20C3205D39F
:1015500051F8043B40F8043B043AF9D2043208D075
:10156000D2071CBF11F8013B00F8013B01D30B88E7
:1015700003806046704700BF082A13D38B07B1D0A1
:1015800010F00303AED0C3F10403D21ADB071CBF73
:1015900011F8013B00F8013BA4D331F8023B20F8DD
:1015A000023B9FE7043AD9D3013A11F8013B00F816
:1015B000013BF9D20B7803704B7843708B788370C2
:1015C000604670474FEA410C7FEA6C5C02D150EAFA
:1015D000013C0AD14FEA430C7FEA6C5C02D152EA2B
:1015E000033C02D14FF0000070474FF001007047FC
:1015F00053B94AB9002908BF00281CBF4FF0FF317A
:101600004FF0FF30FFF766BFADF1080C6DE904CE77
:10161000FFF7F6FDDDF804E0DDE9022304B07047D2
:1016200008B500F05DFE08BD08B500F023FE08BD5A
:1016300000B583B001AB02224121D020FFF7F4FFB7
:101640009DF804301B021BB29DF805001843FEF7FD
:10165000D1FE0022084BFFF761F805A3D3E9002370
:10166000FEF77CFDFFF712FA03B05DF804FB00BF44
:10167000A4703D0AD7434240004075402DE9F04137
:1016800088B000240494059406940794264B9A6924
:1016900042F020029A619A6902F020020192019AB6
:1016A0009A6942F004029A619A6902F00402029275
:1016B000029A9A6942F008029A619B6903F0080352
:1016C0000393039BDFF86480012248F22001404627
:1016D00003F075FB164D012243F21A01284603F070
:1016E0006EFB48F220030493012605960694022718
:1016F000079704A9404603F049FA04970596069413
:10170000079704A9284603F041FA43F2180304930B
:10171000059606940323079304A9284603F036FA96
:1017200008B0BDE8F08100BF001002400008014091
:10173000000C014072B6FEE700B591B028220021EE
:1017400006A804F09FF800230193029303930493E7
:101750000593012206924FF4803307930A920222E6
:101760000D920E934FF4E0130F9306A803F044FB81
:1017700090B90F23019302210291002303934FF4A8
:1017800080620492059301A803F07CFD30B903F058
:101790003BFD11B05DF804FBFFF7CCFFFFF7CAFF7C
:1017A00000B587B00024029403940494059403F0D8
:1017B00057F9FFF7C1FFFFF761FF00F0C1FD5E4879
:1017C00000F08EFB00F01EFB00F087F9224620217E
:1017D0005A4803F0F4FA02F0DFF90C23584A214684
:1017E000204600F0E7F90C23564A0221204600F07B
:1017F000E1F90C23544A0421204600F0DBF90C23C4
:10180000524A0621204600F0D5F946E00C23504A02
:101810000021302000F0CEF9029800F10040FEF7E0
:10182000FBFD02460B46032100913821002000F009
:10183000DBF951E00C23464A0221302000F0BAF9CE
:10184000039800F10040FEF7E7FD02460B46032136
:1018500000913821022000F0C7F954E00C233C4AE3
:101860000421302000F0A6F9049800F10040FEF7B2
:10187000D3FD02460B46032100913821042000F0DD
:10188000B3F9FFF7D5FEFEF7C7FD02460B4602216E
:1018900000913021062000F0A7F904AA03A902A8AC
:1018A00002F0DEF9FFF7F8F9059000210298FFF742
:1018B000E9FB0028AAD10C23264A0021302000F0A1
:1018C00079F90298FEF7A8FD02460B460321009124
:1018D0003821002000F088F900210398FFF7D2FB9F
:1018E0000028A7D10C231B4A0221302000F062F906
:1018F0000398FEF791FD02460B4603210091382123
:10190000022000F071F900210498FFF7BBFB0028CA
:10191000A4D10C230F4A0421302000F04BF9049885
:10192000FEF77AFD02460B46032100913821042080
:1019300000F05AF9A5E700BF140A00200008014092
:1019400080C6000888C6000890C6000898C600082F
:10195000A0C60008A4C6000810B50D4C01224FF423
:101960008051204603F02BFA01224FF4005120460B
:1019700003F025FA00224FF40051204603F01FFA2D
:1019800000224FF48051204603F019FA10BD00BF29
:10199000000C014010B50A4C01224FF48051204642
:1019A00003F00DFA00224FF40051204603F007FA2D
:1019B00001224FF40051204603F001FA10BD00BF90
:1019C000000C014010B5074C01224FF48051204615
:1019D00003F0F5F900224FF48051204603F0EFF9AF
:1019E00010BD00BF000C014070B5044600224FF44A
:1019F0008051144803F0E3F9002516E000224FF46B
:101A00000051104803F0DBF96400E4B20D4E0122EE
:101A10004FF48051304603F0D2F900224FF4805148
:101A2000304603F0CCF90135EDB2072D09D814F09A
:101A3000800FE3D001224FF40051024803F0BFF9B8
:101A4000E2E770BD000C014010B50446FFF784FFCB
:101A50007820FFF7C9FFFFF7B5FF0020FFF7C4FFAD
:101A6000FFF7B0FF2046FFF7BFFFFFF7ABFFFFF721
:101A700091FF10BD10B50446FFF76EFF7820FFF709
:101A8000B3FFFFF79FFF4020FFF7AEFFFFF79AFF7E
:101A90002046FFF7A9FFFFF795FFFFF77BFF10BD7B
:101AA00008B519B1C0B2FFF7E5FF08BDC0B2FFF736
:101AB000CBFFFAE710B5044608460021B030FFF727
:101AC000EFFF2009002140F01000FFF7E9FF00219F
:101AD00004F00F00FFF7E4FF10BD38B500250AE061
:101AE00001210020FFF7DCFF0134E4B214F0800F85
:101AF000F6D00135EDB2072D0ED8002105F1B0006A
:101B0000FFF7CEFF00210846FFF7CAFF0021102093
:101B1000FFF7C6FF0024E9E738BD0000F8B5074627
:101B20000E46203AD5B210F0800F07D1102B09D005
:101B300031463846FFF7BEFF002433E00236F6B2E6
:101B40000027F3E731463846FFF7B4FF002408E0EA
:101B500004EB05130121154AD05CFFF7A1FF013406
:101B6000E4B2072CF4D9711CC9B23846FFF7A2FFC2
:101B7000002409E004EB0513083301210B4AD05C73
:101B8000FFF78EFF0134E4B2072CF3D90CE005EB2C
:101B90004503074A02EB43030121185DFFF780FF6D
:101BA0000134E4B2052CF2D9F8BD00BFD0C800085A
:101BB000A8C60008F8B504460E4615461F4600E0C4
:101BC00001352A7862B13B4631462046FFF7A6FF31
:101BD0000834E4B2782CF3D90236F6B20024EFE7E9
:101BE000F8BD0000000000002DE9F04F87B0074667
:101BF0000E46154600921C4601930023039304935E
:101C000005930022002328462146FEF7CFFEB8B9EF
:101C100000980199FEF7F2FE05462846FEF7EAFB1A
:101C200002460B4600980199FEF796FA6EA3D3E997
:101C30000023FEF749FCFEF709FF01210C460BE0EB
:101C4000284604F10041FEF7D9FE0546E5E701EB21
:101C5000810149000134E4B2654B83FB0523EA1797
:101C6000C2EBA30292FBF1F3002BF0D1614981FB9F
:101C7000051E4FEAE57CCCEB2E3EDFF8749189FB24
:101C80000E184FEAEE71C1EBA80101EB8101AEEB3A
:101C900041018DF80C10DFF8608188FB051ECCEB4C
:101CA000AE1E89FB0E1A4FEAEE71C1EBAA0101EBE1
:101CB0008101AEEB41018DF80D10DFF840E18EFBA4
:101CC000051ACCEB6A1A89FB0A1B4FEAEA71C1EBD1
:101CD000AB0101EB8101AAEB41018DF80E1089FBEC
:101CE000021AD117C1EBAA0101EB8101A2EB41015C
:101CF0008DF80F1089FB0529CCEBA90C0CEB8C0C93
:101D0000A5EB4C0C8DF810C02E228DF81120A8FBED
:101D100000284FEA98183A4AA2FB0851C90801EB7B
:101D20008101A8EB41018DF81210AEFB001E4FEAB5
:101D30005E1EA2FB0E51C90801EB8101AEEB410111
:101D40008DF81310A2FB0051C908A2FB0152D20862
:101D500002EB8202A1EB42028DF8142001EB81011B
:101D6000A0EB41018DF815109DF84050063505F1A6
:101D700018026A44002102F80C1C09E003F1180261
:101D80000DEB020111F80C2C303201F80C2C013350
:101D9000092BF3DD0022002300980199FEF706FECF
:101DA000B0B92E238DF8113005F118030DEB0305A2
:101DB000002305F80C3CC4F105020C230DEB0301D4
:101DC0000A4439463046FFF7F5FE07B0BDE8F08F0C
:101DD0000134E4B2C4F1050318336B442D2203F837
:101DE0000C2CDEE7AFF30080000000000088C34049
:101DF00067666666AD8BDB68D34D62101F85EB515D
:101E0000CDCCCCCC08B50021AE20FFF749FE002197
:101E10000846FFF745FE00211020FFF741FE002194
:101E20004020FFF73DFE0021B020FFF739FE0021E2
:101E30008120FFF735FE0021FF20FFF731FE002152
:101E4000A120FFF72DFE0021A620FFF729FE00218B
:101E5000A820FFF725FE00213F20FFF721FE0021EB
:101E6000C820FFF71DFE0021D320FFF719FE002137
:101E70000846FFF715FE0021D520FFF711FE0021CF
:101E80008020FFF70DFE0021D820FFF709FE00217A
:101E90000520FFF705FE0021D920FFF701FE0021F4
:101EA000F120FFF7FDFD0021DA20FFF7F9FD002109
:101EB0001220FFF7F5FD0021DB20FFF7F1FD0021E7
:101EC0003020FFF7EDFD00218D20FFF7E9FD002117
:101ED0001420FFF7E5FD0021AF20FFF7E1FD08BD6D
:101EE00008B5054B1860054B1868002302221946F7
:101EF000806803F083FD08BD0C0A00204400002028
:101F000010B5013801280AD814464FF0FF3392B2B9
:101F10000748006803F053FB40B9204610BD03F0AA
:101F200053FC092303604FF0FF30F7E70520F5E786
:101F30000C0A002008B548B94FF0FF3301220848C9
:101F4000006803F0A8FB40B9012008BD03F03CFC89
:101F5000092303604FF0FF30F7E70520F5E700BFE6
:101F60000C0A002082B00E4B9A6942F001029A617D
:101F70009A6902F001020092009ADA6942F08052F6
:101F8000DA61DB6903F080530193019B054A5368D2
:101F900023F0E06343F00073536002B0704700BF6A
:101FA000001002400000014008B503F049FAFEE7C6
:101FB000FEE7FEE7FEE7FEE770477047704708B5AB
:101FC00002F060FD08BD0120704708B503F0FCFB7E
:101FD000162303604FF0FF3008BD08B54FF0FF3106
:101FE000FFF7F3FFFEE7000008B503460B4A12684F
:101FF00042B10A4A106803446A46934206D8074A27
:10200000136008BD054A06491160F2E703F0DCFBE6
:102010000C2303604FF0FF30F3E700BF100A0020ED
:10202000B80A00204FF0FF3070474FF400534B6068
:102030000020704701207047002070477047000063
:1020400000B585B000230093019302930393082306
:102050000093012302936946024802F097FD05B000
:102060005DF804FB000C014000B585B0002300932F
:102070000193029303930823009301230193032305
:1020800003936946024802F081FD05B05DF804FB48
:10209000000C014010B5FFF7E7FF0B4C01220821AF
:1020A000204602F08CFE01221021204602F087FE1D
:1020B00000220821204602F082FE00221021204644
:1020C00002F07DFE10BD00BF000C014010B5FFF70F
:1020D000CBFF0B4C00221021204602F070FE0022A4
:1020E0000821204602F06BFE01221021204602F05A
:1020F00066FE01220821204602F061FE10BD00BFED
:10210000000C014038B5FFF79BFF104C012208215D
:10211000204602F054FE01221021204602F04FFE1C
:1021200000240821094802F043FE054638B1013475
:10213000E4B2FA2CF5D9FFF7C9FF012504E000222B
:102140001021024802F03BFE284638BD000C014039
:1021500010B50C4C00221021204602F030FEFFF793
:1021600083FF00220821204602F029FE01221021CF
:10217000204602F024FE00221021204602F01FFE1D
:1021800010BD00BF000C014010B50C4C0022102106
:10219000204602F014FEFFF767FF012208212046C7
:1021A00002F00DFE01221021204602F008FE00225E
:1021B0001021204602F003FE10BD00BF000C0140BC
:1021C00070B50446FFF750FF00221021124802F0BC
:1021D000F6FD002513E0002208210F4802F0EFFD74
:1021E0006400E4B20C4E01221021304602F0E7FDFB
:1021F00000221021304602F0E2FD0135EDB2072D3C
:1022000008D814F0800FE6D001220821024802F01D
:10221000D6FDE5E770BD00BF000C0140F8B50746EC
:10222000FFF70EFF0024254601E00135EDB2072D32
:1022300015D80F4E00221021304602F0C0FD0122B9
:102240001021304602F0BBFD6400E4B208213046A4
:1022500002F0AEFD0028E8D00134E4B2E5E71FB19A
:10226000FFF776FF2046F8BDFFF78EFFFAE700BFC5
:10227000000C01402DE9F0410446884615461E46F3
:10228000FFF708FF2046FFF79BFFFFF73BFF78B9FA
:1022900007464046FFF794FFFFF734FFFFF7FAFECB
:1022A000601CC0B2FFF78CFFFFF72CFF3C4609E033
:1022B000FFF70CFF012710E00120FFF7AFFF3055BB
:1022C0000134E4B2AC4206D26B1E9C42F4D1002031
:1022D000FFF7A4FFF3E7FFF7F9FE3846BDE8F0810A
:1022E0002DE9F04104460F4615461E46FFF7D2FE83
:1022F0002046FFF765FFFFF705FF88B9804638469F
:10230000FFF75EFFFFF7FEFE4446AC4214D2305D9D
:10231000FFF756FFFFF7F6FE48B90134E4B2F4E7E1
:10232000FFF7D4FE4FF001084046BDE8F081FFF70B
:10233000CDFE4FF00108F7E7FFF7C8FEF4E7000015
:1023400008B50A480A4B03604FF4E13343600023A9
:102350008360C36003610C2242618361C36103F047
:10236000FFF800B908BDFFF7E5F9FBE7140A002004
:102370000048004010B586B00023029303930493F5
:1023800005930268174B9A4201D006B010BD03F5C1
:10239000E433DA6942F48022DA61DA6902F48022F5
:1023A0000092009A9A6942F008029A619B6903F0D0
:1023B00008030193019B4FF480630293022303936C
:1023C00003230593084C02A9204602F0DFFB4FF4DB
:1023D0000063029300230393049302A9204602F0B2
:1023E000D5FBD2E700480040000C0140F0B583B0B7
:1023F00007462C4B586801AB04220D210078FFF7EB
:1024000013F900284BD104469DF80420D21002F0A5
:102410001C029DF80710C1F301131A438DF8002028
:102420009DF80520D21002F01C02C1F381031A436B
:102430008DF801209DF80630DB1003F01C0301F03D
:1024400003010B438DF8023018E007EB8405164BAF
:1024500047F8243004E015492868FEF775FC286029
:1024600006F108030DEB030212F8083C013BDBB256
:1024700002F8083C002BEED10134E4B2022C0BD858
:10248000264604F108036B4413F8083C002BDCD10A
:10249000002347F82430EFE7002003B0F0BD072009
:1024A000FBE700BF100000207B14AE3E1D5A843FA6
:1024B0002DE9F04385B08146884601A8FFF796FFD5
:1024C00000273C460DE021493046FEF7DBFD20B9F0
:1024D0001F493046FEF7F4FD10B10123A3401F430E
:1024E0000134022C2EDCA50059F8240058F82430C1
:1024F000C01A0028B8BF4042FEF7D2FB4FF05E5131
:10250000FEF722FC064605F110030DEB030555F816
:102510000C5C00212846FEF7ABFD0028D3D12946EC
:102520003046FEF7C5FC4FF07E51FEF703FB20F06E
:1025300000400849FEF7C4FD0028D1D00123A34084
:102540001F43CDE7384605B0BDE8F0839A99993E20
:102550003333733F295C0F3E2DE9F04182B00746CB
:102560008846374B586801AB03220D210078FFF7EE
:102570005BF800285FD19DF8043003F01F038DF84D
:1025800004309DF8053003F01F038DF805309DF8E9
:10259000063003F01F038DF806300026344626E08F
:1025A0002849FEF7D1FB04F108030DEB030212F8F2
:1025B000043C013BDBB202F8043C002BF0D10146A5
:1025C0002846FEF775FC4FF07E51FEF7B3FA20F077
:1025D00000401D49FEF774FD40B10123A3401E4396
:1025E00004E01A48DFE70123A3401E430134022C14
:1025F00022DC57F8240058F82430C01A0028B8BF4D
:102600004042FEF74DFB4FF05E51FEF79DFB054645
:1026100004F108036B4413F8043C002BE1D10C498E
:10262000FEF730FD0028DED10A492846FEF748FDB6
:102630000028DBD0D7E70726304602B0BDE8F0819E
:102640001000002054E3853F295C0F3E0000C84184
:10265000000020410000D24200B583B0234B93F824
:102660002430CBB1A0B102238DF807301F4B58683E
:1026700019680DF107030122C97B0078FEF7D0FF2E
:1026800048BB9DF80720194B5A7403B05DF804FB52
:1026900000238DF80730E9E7144B9B7AF3B110B1B2
:1026A000124B5B7CEBB990B101238DF807300F4BD7
:1026B000586819680DF107030122C97B0078FEF7FD
:1026C000AFFF80B99DF80720084B5A74DDE700235F
:1026D0008DF80730EBE74FF0FF30D6E74FF0FF30D3
:1026E000D3E70020D1E74FF0FF30CEE71000002005
:1026F000F0B589B005460C46164601238DF8143016
:1027000000238DF81530854B5868196805AB0222F7
:10271000897C0078FEF784FF002840F0CE81C82035
:1027200002F0C2F900238DF814307C4B5868196808
:1027300005AB0122C97B0078FEF772FF002840F04C
:10274000BF81764B5868196805AB0122497900783A
:10275000FEF766FF002840F0B681704B5868196894
:1027600005AB0122897C0078FEF75AFF002840F073
:10277000AD816A4B5868196805AB0122C97D0078A4
:10278000FEF74EFF002840F0A481644B586819689A
:1027900005AB012209790078FEF742FF002840F0DE
:1027A0009B810C238DF814305C4B5868196805AB7D
:1027B000012209790078FEF733FF002840F08F816D
:1027C0000F2002F071F9554B9A6A527A8DF8142055
:1027D0005868196805AB012289780078FEF720FF58
:1027E000002840F07F814D4B9A6A127A8DF81420B0
:1027F0005868196805AB012249780078FEF710FF88
:10280000002840F07281002E79D0444B9B6A9B7A5D
:1028100063F01F038DF81430404B5868196805ABFE
:10282000012289790078FEF7FBFE002840F06081E4
:10283000002E6AD0394B9B6ADB7A63F01F038DF858
:102840001430364B5868196805AB0122C9790078F5
:10285000FEF7E6FE002840F04E81002E59D14023BD
:102860008DF814302D4B5868196805AB0122097991
:102870000078FEF7D5FE002840F0408178238DF8DF
:102880001430264B5868196805AB01224979007845
:10289000FEF7C6FE002840F03481322002F004F931
:1028A00000238DF814301D4B5868196805AB0122C0
:1028B00049790078FEF7B4FE002840F02581174BD7
:1028C0005868196805AB0222897A0078FEF7ACFED9
:1028D0000646002840F01B819DF814309DF81570C5
:1028E00047EA03270E4BA3FB0737C7F3C7070023AD
:1028F000AB606B602B60A360636023605CE0074BA0
:102900009B6A9B7A8DF8143086E718238DF8143073
:1029100097E7C82002F0C8F8A1E700BF1000002028
:10292000ABAAAAAA9DF814309DF8151041EA03211C
:1029300009B2ADF804109DF816309DF8172042EA50
:10294000032212B2ADF806209DF818009DF8193048
:1029500043EA00231BB2ADF808302068014421602F
:1029600061680A446260A2681344A3609DF81A304B
:102970009DF81B1041EA032109B2ADF80C109DF837
:102980001C309DF81D2042EA032212B2ADF80E2041
:102990009DF81E009DF81F3043EA00231BB2ADF8DE
:1029A000103028680144296069680A446A60AA688E
:1029B0001344AB600136F6B2BE420ED2554B586896
:1029C000196805AB0C22C97A0078FEF72DFE0028A5
:1029D000A8D04FF0FF3009B0F0BD29688322002352
:1029E00008040914FEF7BCFB00263A463346FEF7FE
:1029F000B7FB286069688322002308040914FEF7E6
:102A0000AFFB3A463346FEF7ABFB6860A96883220A
:102A1000002308040914FEF7A3FB3A463346FEF7E9
:102A20009FFBA8602068031400041946B3422DDB05
:102A3000C00A3A46334640EA4150C912FEF790FBBD
:102A400020606068031400041946002B24DBC00AD0
:102A50003A46334640EA4150C912FEF781FB6060B6
:102A6000A068031400041946002B1BDBC00A3A4679
:102A7000334640EA4150C912FEF772FBA0600028BD
:102A800016DDA0F58030A0600020A4E740F2FF72C0
:102A9000801843F10001CBE740F2FF72801843F148
:102AA0000001D4E740F2FF72801843F10001DDE736
:102AB00000F58030A06000208DE74FF0FF308AE7FE
:102AC0004FF0FF3087E74FF0FF3084E74FF0FF30E3
:102AD00081E74FF0FF307EE74FF0FF307BE74FF0AC
:102AE000FF3078E74FF0FF3075E74FF0FF3072E7C7
:102AF0004FF0FF306FE74FF0FF306CE74FF0FF30E3
:102B000069E74FF0FF3066E74FF0FF3063E74FF0C3
:102B1000FF3060E7100000207C4B9B7A002B00F018
:102B2000D48000B583B000238DF80730774B586808
:102B300019680DF107030122C97B0078FEF770FDCB
:102B4000002840F0C580714B586819680DF10703E3
:102B5000012249790078FEF763FD002840F0BB8030
:102B60006A4B586819680DF107030122097900784A
:102B7000FEF756FD002840F0B180644B93F82430F6
:102B8000002B52D00C238DF80730604B5868196821
:102B90000DF10703012209790078FEF741FD0028B5
:102BA00040F09F80322001F07FFFC0238DF8073076
:102BB000564B9B7A13F0010F02D0E0238DF80730BB
:102BC000524B586819680DF1070301220979007802
:102BD000FEF726FD002840F087804C4B5B7C03B35A
:102BE00002238DF80730494B586819680DF1070327
:102BF0000122C97B0078FEF713FD002877D100235E
:102C00008DF80730414B586819680DF10703012210
:102C100049790078FEF704FD00286BD103B05DF818
:102C200004FB00238DF80730DDE704238DF807301F
:102C3000364B586819680DF10703012209790078AD
:102C4000FEF7EEFC002858D1304B9B7C23B92F4B6C
:102C50009B7A13F0010F30D140238DF807302B4BB6
:102C6000586819680DF10703012209790078FEF709
:102C7000D7FC002844D1322001F016FF234B5B7CA7
:102C8000FBB101238DF80730204B586819680DF10E
:102C900007030122C97B0078FEF7C2FC98BB1B4BDF
:102CA000586853F8101B012249790078FEF7B8FCE8
:102CB0000028B3D04FF0FF30B0E760238DF8073025
:102CC000CDE700238DF80730DEE74FF0FF30704787
:102CD0004FF0FF30A2E74FF0FF309FE74FF0FF309B
:102CE0009CE74FF0FF3099E74FF0FF3096E74FF049
:102CF000FF3093E74FF0FF3090E74FF0FF308DE764
:102D00004FF0FF308AE74FF0FF3087E710000020D8
:102D10000D4B1B7A032B13D8DFE803F002060A0ED3
:102D2000FA230380002070474FF4FA730380F9E719
:102D30004FF47A730380F5E74FF4FA630380F1E709
:102D400000230380EEE700BF10000020244B9B7A95
:102D5000002B3CD000B583B0B0F57A7F33D00BD8D0
:102D6000FA2813D0B0F5FA7F03D108238DF8073085
:102D70000FE04FF0FF3023E0B0F5FA6F03D11823D6
:102D80008DF8073005E04FF0FF3019E000238DF893
:102D90000730134B1B7A9DF80720B3EBD20F19D0E5
:102DA0000F4B586819680DF10703012289790078E3
:102DB000FEF736FC80B99DF80730DB08084A13722D
:102DC00003B05DF804FB10238DF80730E1E74FF006
:102DD000FF3070470020F3E74FF0FF30F0E700BF0F
:102DE000100000200F4B5B7A032B16D8DFE803F0AE
:102DF000020C0F12022303700A4BDB7C83B10378B1
:102E00005B0003700020704704230370F4E708237D
:102E10000370F1E710230370EEE74FF0FF307047C7
:102E20000020704710000020234B9B7A002B35D0E8
:102E300000B583B002380E2833D8DFE800F008323E
:102E40002332323227323232323232322B000023F6
:102E50008DF80730184B5B7A9DF80720B3EBD20F43
:102E600024D0154B586819680DF107030122C97960
:102E70000078FEF7D5FBD8B99DF80730DB080E4A7D
:102E8000537210E008238DF80730E3E710238DF824
:102E90000730DFE718238DF80730DBE74FF0FF300E
:102EA00070474FF0FF3003B05DF804FB0020FAE7F5
:102EB0004FF0FF30F7E700BF100000200F4BDB7A28
:102EC000013B052B17D8DFE803F003070A0D1013A9
:102ED000BC2303800020704762230380FAE72A2383
:102EE0000380F7E714230380F4E70A230380F1E764
:102EF00005230380EEE700230380EBE710000020AA
:102F0000234B9B7A002B3AD000B583B0BB281AD94B
:102F100001238DF807301E4BDA7A9DF807309A426C
:102F200030D01B4B586819680DF1070301228978CE
:102F30000078FEF775FB38BB9DF80720144BDA725A
:102F400003B05DF804FB612803D902238DF8073034
:102F5000E1E7292803D903238DF80730DBE713289D
:102F600003D904238DF80730D5E7092803D90523B1
:102F70008DF80730CFE706238DF80730CBE74FF009
:102F8000FF3070470020DBE74FF0FF30D8E700BF8D
:102F900010000020054B93F8243023B9034BDB8944
:102FA0000380002070474FF0FF3070471000002072
:102FB0000D4B1B7A032B13D8DFE803F002060A0E31
:102FC0000A4B036000207047094B036000207047E4
:102FD000084B036000207047074B036000207047D8
:102FE0004FF0FF30704700BF100000200000034387
:102FF000000083423333034233338341114B5B7A06
:10300000032B1AD8DFE803F0020D11154FF48043AB
:1030100003800C4BDB7C9BB103885B0803800020A2
:10302000704741F69C730380F3E74FF480530380AD
:10303000EFE74FF400630380EBE74FF0FF3070479A
:103040000020704710000020024B1B7C0370002002
:10305000704700BF1000002070B5174B93F8243064
:103060002BBB00F0FE04144B9B7A13B3124A167C60
:1030700023401374A3420BD04FF0FF3514B90E4B0D
:103080001B7D3BB10120FFF7E7FA3CB9284670BD34
:103090000025F3E70020FFF7DFFAF6E7FFF73CFD36
:1030A0000028F3D0044B1E744FF0FF35EEE70025E7
:1030B000ECE74FF0FF35E9E7100000202E4B93F8C6
:1030C0002430002B49D0F0B583B005460F46164694
:1030D000294B9B7A002B43D0274B5868196801ABCA
:1030E0000222897A0078FEF79FFA00283BD19DF8EA
:1030F00004009DF8054044EA0024AC4223D31E4B53
:1031000058684388B4EB530F0DD91B4B196801ABBA
:103110000122497C0078FEF787FA38BB9DF804301D
:1031200013F0100F14D1144B586819683B46EAB2DB
:10313000C97A0078FEF778FAD8B9B4FBF5F4013C07
:10314000347003B0F0BD002333704FF0FF30F8E768
:10315000FFF7E2FC6FF00100F3E74FF0FF3070473C
:103160004FF0FF30EDE74FF0FF30EAE74FF0FF3070
:10317000E7E74FF0FF30E4E710000020584B9B7C5E
:10318000834200F09C8010B582B00446002844D0F1
:10319000534B586819680DF107030122097900782B
:1031A000FEF742FA002840F08C809DF8073023F0AB
:1031B00020038DF807304A4B586819680DF1070352
:1031C000012209790078FEF72BFA00287CD1032030
:1031D00001F06AFC02238DF80730414B93F822304E
:1031E00013B182238DF807303D4B93F823302BB178
:1031F0009DF8073043F030038DF80730384B58689E
:1032000019680DF107030122097D0078FEF708FA1D
:10321000002844D04FF0FF3044E0314B5868196823
:103220000DF10703012209790078FEF7FDF9002866
:103230004DD12B4B9B7A13F0010F35D09DF8073001
:1032400043F020038DF80730254B586819680DF1BD
:103250000703012209790078FEF7E2F9002839D145
:10326000032001F021FC1E4B93F822301BB3802376
:103270008DF807301A4B93F823302BB19DF80730A7
:1032800043F030038DF80730154B586819680DF17D
:1032900007030122097D0078FEF7C2F9E8B9104B57
:1032A0009C74002002B010BD9DF8073023F020036D
:1032B0008DF80730C8E700238DF80730DAE70020E3
:1032C00070474FF0FF30EDE74FF0FF30EAE74FF087
:1032D000FF30E7E74FF0FF30E4E74FF0FF30E1E782
:1032E000100000201B4B93F8233083422DD010B5E3
:1032F00082B0044628B330238DF80730154B9B7CF1
:103300002BB19DF8073043F002038DF80730114BC5
:1033100093F822302BB19DF8073063F07F038DF8CE
:1033200007300C4B586819680DF107030122097D1D
:103330000078FEF775F950B9064B83F8234002B0C8
:1033400010BD00238DF80730D8E7002070474FF0FC
:10335000FF30F4E71000002028285FD810B582B0B5
:103360000446B8B90020FFF7BDFF00238DF80430F4
:1033700007238DF805302E4B5868196801AB0222DF
:10338000897C0078FEF74CF900284AD1284B187543
:1033900002B010BD0120FFF7A5FF20238DF80430F7
:1033A000012C26D0052C2BD9142C30D802238DF8D3
:1033B00005300A20FFF7A4FD9DF805309B0143F07E
:1033C00007038DF805301A4B5868196801AB0222C3
:1033D000897C0078FEF724F930BB154B08229A72DD
:1033E00000241C7301221A752046FFF735FE204683
:1033F000CEE700238DF805300520FFF781FDDBE7E0
:1034000001238DF805300520FFF77AFDD4E703236B
:103410008DF805301420FFF773FDCDE74FF0FF3036
:1034200070474FF0FF30B3E74FF0FF30B0E700BF19
:1034300010000020264B9B7A002B40D010B582B0A4
:103440000446234B93F82430002B3BD1204B1B7DAB
:1034500033B1431E9BB2272B0AD90020FFF77CFF14
:10346000032C0AD9B4F57A7F08D94FF47A7405E0B1
:10347000C0B2FFF771FF00201FE004244FF47A7000
:1034800090FBF4F4013C8DF80740114B5868196823
:103490000DF10703012249780078FEF7C1F8A0B9C1
:1034A0009DF80700431C4FF47A7090FBF3F0084B33
:1034B000D8814008FFF724FD002002B010BD4FF076
:1034C000FF3070474FF0FF30F7E74FF0FF30F4E781
:1034D0001000002010B582B0044610F0700F50D0DC
:1034E00001238DF80730334B586819680DF1070335
:1034F0000122897C0078FEF793F800284AD19DF8D4
:10350000073003F0BF032B4A137300238DF80730F5
:1035100014F0400F02D104238DF8073014F0200F6F
:1035200005D19DF8073043F002038DF8073014F001
:10353000100F05D19DF8073043F001038DF80730D7
:1035400014F0080F05D19DF8073043F038038DF8CB
:103550000730184B586819680DF107030122C97C20
:103560000078FEF75DF8D8B90CB1082C1ED1114BCC
:103570009C7200241C75322001F096FA204602B09D
:1035800010BD18B100238DF80730ACE740238DF84B
:103590000730A8E7074B00229A724FF0FF30EEE7A2
:1035A000044B00229A724FF0FF30E8E70020FFF74B
:1035B00099FEDCE71000002010B582B080238DF862
:1035C0000030674B586819686B460122897C007887
:1035D000FEF726F8002840F0A480642001F064FA89
:1035E00000238DF800305E4B586819686B46012245
:1035F000897C0078FEF714F8002840F09580584B3D
:10360000586819686B460622897D0078FEF70CF829
:10361000002840F08C809DF80510890001F004011D
:103620009DF803305B0003F0020319439DF901305C
:1036300003F00103194352D0012946D0022948D191
:10364000474B0022DA74464BFF229A721A725A7262
:10365000DA724FF6FF71D9811A749A7401221A73C3
:1036600083F82220002283F823205A751A75C3F8A4
:103670001620C3F81A20C3F81E2083F8242083F8EC
:103680002520DA844FF4FA60FFF760FB002854D15C
:103690000220FFF7C9FB002852D12A20FFF730FC97
:1036A000002850D13220FFF7C5FE00284ED1FFF789
:1036B000D3FC00284DD1FFF761FD044600284BD113
:1036C000FFF708FF204602B010BD254B0122DA7437
:1036D000B9E7244802F028F94FF0FF34F2E7204B15
:1036E000586819686B460122C9780078FDF79CFF7D
:1036F00000BB9DF8003013F00F0305D0042B09D058
:10370000174B0022DA749EE7174802F06FF94FF06A
:10371000FF34D7E7154802F069F9114B0122DA743A
:1037200091E74FF0FF34CDE74FF0FF34CAE74FF099
:10373000FF34C7E74FF0FF34C4E74FF0FF34C1E771
:103740004FF0FF34BEE74FF0FF34BBE74FF0FF34DC
:10375000B8E74FF0FF34B5E74FF0FF34B2E700BFF2
:1037600010000020D8CE000800CF00084CCF000881
:103770003AB370B582B00C461646194B9B7A1BB310
:10378000030A8DF80430C0B28DF805000844144BCC
:103790005D686B8998421ADC114B196801AB0222F3
:1037A000097E2878FDF73CFFA0B90D4B58681968D1
:1037B0003346E2B2497D0078FDF732FF68B902B0C6
:1037C00070BD4FF0FF3070474FF0FF30F7E74FF01C
:1037D000FF30F4E74FF0FF30F1E74FF0FF30EEE756
:1037E000100000203AB370B582B00C461646194B53
:1037F0009B7A1BB3030A8DF80430C0B28DF8050024
:103800000844144B5D686B8998421ADC114B1968A7
:1038100001AB0222097E2878FDF702FFA0B90D4B0B
:10382000586819683346E2B2497D0078FDF7FCFE1E
:1038300068B902B070BD4FF0FF3070474FF0FF30F5
:10384000F7E74FF0FF30F4E74FF0FF30F1E74FF0CC
:10385000FF30EEE7100000202DE9F04F87B09A46C8
:10386000294B93F82530002B3CD1074688469146DA
:1038700000293AD00024BC421BD23E1B102EA8BF08
:103880001026B5B208EB040B5A4629462046FFF72E
:103890006FFF68BB02AA29462046FFF7A3FF50BB73
:1038A0002A4602A9584601F0B9FF38BB2C44A4B2FD
:1038B000E1E74FEA19238DF804308DF80590124B9B
:1038C0005868196801AB0222897E0078FDF7A8FECE
:1038D000B8B90D4B012283F82520A3F826A007B024
:1038E000BDE8F08F4FF0FF30F9E74FF0FF30F6E71B
:1038F0004FF0FF30F3E74FF0FF30F0E76FF00100DB
:10390000EDE74FF0FF30EAE710000020234B93F87B
:10391000243083423CD030B583B018B31F4B93F8AA
:103920002530002B36D00020FEF796FE0020FFF752
:1039300025FC1A4DE88CFFF77DFD00248DF807402B
:1039400068680DF10703012223210078FDF768FE66
:10395000012085F82400FEF77FFEFFF7DDF8204602
:1039600003B030BD0020FEF777FE0C4D2B7C8DF8A8
:10397000073068680DF10703012223210078FDF765
:103980004FFE002485F82440FFF7C6F82046E7E7FD
:10399000002070474FF0FF30E2E700BF100000202A
:1039A0002DE9F04188B005460E463D4B93F8247052
:1039B000FFB901A8FFF7ACF90DF10700FFF712FA04
:1039C0006846FFF77BFA0DF10200FFF7E3FA344B8C
:1039D00093F80A800DF10600FFF736FB0024012C56
:1039E0000CDC002231462846FEF782FE30B101345D
:1039F000F5E70020FFF78AFF0127DAE7022C1FD046
:103A00000024012C07DC012202A905A8FEF770FEA4
:103A100008B10134F5E7022C14D002A93046FEF7B4
:103A200047FDC6B205A92846FEF796FD10F0FF0F28
:103A300004D000243EB944F0020404E00124F9E774
:103A4000002400E00024164BFF221A725A72DA7228
:103A50004FF6FF71D9819A721A7401221A73BDF858
:103A60000400FFF773F99DF80700FFF7DDF9BDF8D3
:103A70000000FFF745FABDF80200FFF7DBFC404607
:103A8000FFF728FD9DF80600FFF7E6FA1FB920466C
:103A900008B0BDE8F0810120FFF738FFF7E700BF6D
:103AA0001000002010B588B002A905A8FFF778FF24
:103AB000032802D0012008B010BD01A8FFF778FA52
:103AC000019C0598FDF7ECF82146FDF73DF9FDF75F
:103AD00001FB05900698FDF7E3F82146FDF734F960
:103AE000FDF7F8FA06900798FDF7DAF82146FDF79A
:103AF0002BF9FDF7EFFA079005A800F065FA0DF134
:103B00000200FFF77BFABDF80220029B02FB03F3E1
:103B10000293039B02FB03F30393049B02FB03F357
:103B2000049302A800F0D8FA024801F05FFF0020D9
:103B3000C1E700BF6CCF000890F90030002B01DD19
:103B4000002070470FDB90F90130002B01DD0120D0
:103B500070470ADB90F90230002B08DC01DB0720FC
:103B600070470620704704207047052070470220E8
:103B7000704738B50546FFF7DFFF0446E81CFFF73E
:103B8000DBFF44EAC00424B2A81DFFF7D5FF44EAD6
:103B9000801080B238BD704708B5FFF70DFD0028D2
:103BA00043D17820FFF796FC18B37820FFF754FA3A
:103BB00018B36420FFF73EFC18B300F053F920B3AC
:103BC0001C48FFF7D6FF00F059F910B340F273100C
:103BD00000F01AFD08B3642000F0F8FA08B3FFF70C
:103BE00061FF0120FFF792FE10BB134801F0FEFEBB
:103BF0001EE0124801F0FAFED7E7114801F0F6FE88
:103C0000D7E7104801F0F2FED7E70F4801F0EEFECB
:103C1000D6E70E4801F0EAFED8E70D4801F0E6FECF
:103C2000D9E70C4801F0E2FED9E70B4801F0DEFECF
:103C300008BD00BF04000020A0D0000890CF0008FD
:103C4000B0CF0008D4CF0008FCCF000830D0000867
:103C500058D000087CD00008C4D000080000000044
:103C60002DE9F04F8FB00646029193460DF12103E6
:103C700001930DF1220300930DAB04AA09A90BA82F
:103C800000F0CEFD002840F0C780BDF8223013F4CC
:103C9000807F00F0C3800498FDF702F84FF0425196
:103CA000FDF752F882460598FCF7FAFF4FF04251B3
:103CB000FDF74AF805460698FCF7F2FF4FF042512F
:103CC000FDF742F804460798FCF7EAFF4FF042512F
:103CD000FDF73AF807464FF040412846FDF734F823
:103CE00081463946FDF730F8804651465046FCF78C
:103CF00023FF03902146FDF727F801464046FCF7D5
:103D00001BFFFCF789FB07F01FFF45A3D3E9002346
:103D1000FCF7DAFBFCF7BAFE306021462046FCF7E0
:103D20000BFF80463946FDF70FF8064629460398F3
:103D3000FDF70AF801463046FCF7FEFE0646294626
:103D40004846FDF701F8814621464046FCF7FCFF56
:103D500001464846FCF7EEFE4FF07E51FCF7ECFEC4
:103D6000FCF75AFB804689463046FCF755FB424635
:103D70004B4607F011FF2AA3D3E90023FCF7A4FB6D
:103D8000FCF784FE029B186021462846FCF7DCFF06
:103D9000064639465046FCF7D7FF01463046FCF749
:103DA000CBFE0146FCF7C8FE064651465046FCF7DE
:103DB000CBFF804629462846FCF7C6FF0146404611
:103DC000FCF7BAFE054621462046FCF7BDFF01463A
:103DD0002846FCF7AFFE044639463846FCF7B4FFE8
:103DE00001462046FCF7A6FEFCF716FB04460D46EE
:103DF0003046FCF711FB22462B4607F0CDFE08A308
:103E0000D3E90023FCF760FBFCF740FECBF8000091
:103E100000200FB0BDE8F08F0120FAE70220F8E79C
:103E20006666666666A64C4038B50446C578437833
:103E300013F0010F09D005F03F00C00805F007019D
:103E40000131074B1B6803B19847637813F0080FE3
:103E500004D0034B5B680BB1A8099847002038BD1C
:103E6000580A002008B5C8234FF48062024940F682
:103E7000F630FFF7F1FC08BD64D1000810B586B03C
:103E800004464C4B1B68ADF80C301B0C8DF80E3003
:103E9000494B1B68ADF808301B0C8DF80A30474BB6
:103EA0001B68ADF804301B0C8DF80630444B1B68C2
:103EB000ADF800301B0C8DF8023000F0030101F169
:103EC00018030DEB030111F80C3C8DF81430C0F30E
:103ED000C10202F118030DEB030212F80C3C8DF83D
:103EE0001530C0F3811318336B4413F80C0C8DF8A4
:103EF000160011F8101C8DF8101012F8102C8DF807
:103F0000112013F8103C8DF8123005AA032140F25D
:103F10002640FFF72DFC002840D104AA032140F2DF
:103F20002A40FFF725FC00283BD1019BADF8143057
:103F30001B0C8DF81630009BADF810301B0C8DF863
:103F4000123014F0040F05D037238DF814302723D6
:103F50008DF8103014F0200F05D057238DF8153050
:103F600047238DF8113014F4807F05D077238DF826
:103F7000163067238DF8123005AA03214FF48860AC
:103F8000FFF7F6FB80B904AA032140F23140FFF7A6
:103F9000EFFB60B90B4B1C8106B010BD4FF0FF303A
:103FA000FAE74FF0FF30F7E74FF0FF30F4E74FF05C
:103FB000FF30F1E72CD1000830D1000834D10008DF
:103FC00038D10008580A002030B585B0404B1B8915
:103FD00003F0030250F82220019213F0040F01D0E5
:103FE00052420192C3F3C10250F82220029213F010
:103FF000200F01D052420292C3F3811250F82220C6
:10400000039213F4807F01D052420392019BD81790
:10401000304AA3FB023102FB00119B0F43EA8103EC
:1040200001930299C817A1FB021502FB0055890FE5
:1040300041EA85050295039CE017A4FB024102FBBF
:104040000012A40F44EA820403941A0E8DF8002093
:10405000C3F307428DF80120C3F307228DF8022035
:104060008DF803306A4604214FF47470FFF780FB2B
:1040700040BB2B0E8DF80030C5F307438DF801309F
:10408000C5F307238DF802308DF803506A460421EA
:104090004FF47570FFF76CFBB8B9230E8DF8003044
:1040A000C4F307438DF80130C4F307238DF80230C1
:1040B0008DF803406A4604214FF47670FFF758FBF1
:1040C00005B030BD4FF0FF30FAE74FF0FF30F7E7B3
:1040D000580A002009E3CA0210B588B004460DF161
:1040E0000600FEF78BFFBDF806C04FEACC3C364B0E
:1040F0001A8902F0030354F82330059312F0040FD9
:1041000001D05B420593C2F3C10354F823300693F8
:1041100012F0200F01D05B420693C2F3811354F8D2
:104120002330079312F4807F01D05B4207930599F7
:10413000CA17A1FB0C130CFB0233890F41EA830160
:104140000591069AD017A2FB0C230CFB0033920FAB
:1041500042EA83020692079BDC17A3FB0C300CFBA0
:10416000040C9B0F43EA8C030793080E8DF808009C
:10417000C1F307408DF80900C1F307208DF80A004C
:104180008DF80B10110E8DF80C10C2F307418DF84D
:104190000D10C2F307218DF80E108DF80F201A0EA6
:1041A0008DF81020C3F307428DF81120C3F30722C6
:1041B0008DF812208DF8133002AA0C214FF42570CF
:1041C000FFF7D6FA08B010BD580A002010B586B027
:1041D0000446164B93E8070006AB03E90700C82C1A
:1041E0001AD8C82393FBF4F3013B1A0E8DF8042070
:1041F0008DF8053001AA022140F21620FFF7B8FA27
:1042000068B903AA0C2140F6C120FFF7B1FA48B9FA
:10421000074B9C8106B010BD4FF0FF30FAE74FF01E
:10422000FF30F7E74FF0FF30F4E700BF3CD1000864
:10423000580A002070B582B0044610F0070F00F055
:10424000AC800846B1F5C86F00F2AA80FCF724FDE7
:104250005B49FCF72DFE05460DF10300FEF7C2FD9C
:104260009DF80330023B0E2B00F29D80DFE803F047
:10427000089B2C9B9B9B3C9B9B9B9B9B9B9B4C00D9
:104280004FF08D412846FCF75FFDFCF749FF86B2F1
:104290004C492846FCF758FDFCF742FF80B2330A30
:1042A0008DF804308DF80560030A8DF806308DF81E
:1042B000070014F0010F37D114F0020F48D114F0A9
:1042C000040F58D1002070E04FF08C412846FCF7D5
:1042D0003BFDFCF725FF86B23B492846FCF734FD41
:1042E000FCF71EFF80B2DAE74FF08B412846FCF75F
:1042F0002BFDFCF715FF86B234492846FCF724FD58
:10430000FCF70EFF80B2CAE74FF08A412846FCF75F
:104310001BFDFCF705FF86B22D492846FCF714FD6E
:10432000FCF7FEFE80B2BAE701AA02214FF4EA7060
:10433000FFF71EFA00283AD10DF1060202214FF4D0
:104340009270FFF715FA0028B6D04FF0FF302CE03E
:1043500001AA02214FF4EC70FFF70AFA50BB0DF1ED
:10436000060202214FF49470FFF702FA0028A6D04B
:104370004FF0FF3019E001AA02214FF4EE70FFF771
:10438000F7F9D0B90DF1060202214FF49670FFF74C
:10439000EFF950B14FF0FF3007E04FF0FF3004E08D
:1043A0004FF0FF3001E04FF0FF3002B070BD4FF032
:1043B000FF30FAE74FF0FF30F7E74FF0FF30F4E758
:1043C00000004843000040460000C0450000404552
:1043D0000000C04400B583B000238DF8073010F012
:1043E000010F02D030238DF8073010F0020F05D0F6
:1043F0009DF8073043F00C038DF8073010F0040FE0
:1044000005D09DF8073043F003038DF807300DF118
:10441000070201214FF4A470FFF7AAF903B05DF879
:1044200004FB00B583B020B10346042802D904235D
:1044300000E00123013B8DF807300DF10702012157
:1044400040F24F10FFF794F903B05DF804FB000051
:1044500000B583B0094BA3FB0030830A8DF804300C
:10446000C0F387008DF8050001AA02214FF4EF7018
:10447000FFF77EF903B05DF804FB00BFCDCCCCCCD8
:1044800000B583B0094BA3FB0030830A8DF80430DC
:10449000C0F387008DF8050001AA02214FF4ED70EA
:1044A000FFF766F903B05DF804FB00BFCDCCCCCCC0
:1044B00000B583B00E4B83FB0023C017C0EBA310E5
:1044C00000FB01F10B0E8DF80430C1F307438DF8AA
:1044D0000530C1F307238DF806308DF8071001AAC7
:1044E00004214FF4AE70FFF743F903B05DF804FB0D
:1044F000D34D621000B583B0084BA3FB0030830896
:10450000800A8DF804008DF8053001AA02214FF4CD
:10451000AD70FFF72DF903B05DF804FBCDCCCCCC2A
:1045200000B583B0084BA3FB00308308800A8DF8E8
:1045300004008DF8053001AA02214FF4AC70FFF79A
:1045400017F903B05DF804FBCDCCCCCC00B585B039
:1045500068B10D4A01AB07CA03C31A7001AA092149
:104560004FF49760FFF704F905B05DF804FB074AC4
:1045700001AB07CA03C31A7001AA09214FF497605F
:10458000FFF7F6F8F0E700BF4CD1000858D100085B
:1045900000B583B0B0B1C0238DF80430C2238DF8CC
:1045A0000530C4238DF80630C6238DF8073001AAE4
:1045B000042140F69820FFF7DBF8FEF7ADFA03B0D0
:1045C0005DF804FB4FF08B330193F0E700B583B047
:1045D000B0B120238DF8043028238DF80530302326
:1045E0008DF8063038238DF8073001AA042140F6F3
:1045F0009E20FFF7BDF8FEF78FFA03B05DF804FBCD
:104600004FF0A3330193F0E72DE9F04184B0044665
:1046100002238DF80430CA238DF80530E3238DF88A
:10462000063009238DF8073001AA04216820FFF71E
:104630009FF8A3238DF8043014F0400800F0B080F8
:10464000C0238DF80530C8238DF80630C2238DF8BD
:10465000073014F4C07500F0AB80C4238DF8083027
:10466000CC238DF80930C6238DF80A30A3238DF8AA
:104670000B308DF80C308DF80D3001AA0A2140F670
:10468000A720FFF775F814F0030700F099802023A6
:104690008DF8043001AA012140F6B620FFF768F832
:1046A00014F0200F00F090800120FFF74FFFADB114
:1046B00014F4807F00F08C80B2238DF804308B23BB
:1046C0008DF80530B6238DF806309B238DF8073022
:1046D00001AA042140F6A220FFF74AF814F0010FC6
:1046E00000F08380F8238DF8043001AA01214FF4F3
:1046F0000B60FFF73DF8FA210720FFF79BFD07202D
:10470000FFF768FE0120FFF78CFE6420FFF7A0FE94
:104710004FF4FA70FFF7B4FEC8213F48FFF7C8FE18
:104720002820FFF7E7FE0A20FFF7FAFE14F0020F39
:1047300065D0D9238DF8043001AA012140F23D70E3
:10474000FFF716F814F0040F5DD00120FFF720FFEB
:1047500014F0100F5BD00120FFF738FF2F4E44F00C
:1047600008037381FEF7D8F90023B373B8F1000F83
:1047700001D00622B2731DB1284A937B063393738E
:1047800014F0140F03D0254A937B103393731FB199
:10479000224A937B04339373002004B0BDE8F08178
:1047A000A3238DF805308DF806308DF8073050E7DB
:1047B000A3238DF808308DF809308DF80A3055E7BD
:1047C000D8238DF8043065E70020FFF7BFFE6EE7C1
:1047D000B0238DF8043080238DF80530B4238DF894
:1047E000063090238DF8073072E7D8238DF8043017
:1047F00001AA01214FF40B60FEF7BAFF96E7D82318
:104800008DF8043098E70020FFF7C2FEA0E70020F3
:10481000FFF7DCFEA2E700BF09E3CA02580A002046
:104820002DE9F0478CB006460F4692469846149DF7
:1048300000232B80159A04A9754B987BFEF73EFC4C
:10484000002840F0E1808146714B5B8913F0140F22
:1048500064D09DF810209DF81100000440EA026029
:104860009DF8122040EA02209DF813201043CAF858
:1048700000009DF814109DF81520120442EA016210
:104880009DF8161042EA01229DF817100A43CAF853
:1048900004209DF818409DF81910090441EA0461AC
:1048A0009DF81A4041EA04219DF81B402143CAF8B3
:1048B00008109DF81CC09DF81D40240444EA0C64B7
:1048C0009DF81EC044EA0C249DF81FC044EA0C0465
:1048D000CAF80C40001400904FEA224CCDF804C0F6
:1048E00009140291221403920CFB0CFC00FB00C083
:1048F00001FB010102FB021202F17142B2F1007FE1
:1049000005D82A8842F480722A80102207E0FEF738
:1049100003F900232B804FF0FF396CE0002213F0E5
:10492000400F2FD002F13001694411F8204C02F100
:1049300031010DEB010010F8201C41EA04213980FF
:1049400002F13201694411F8204C02F133010DEB00
:10495000010010F8201C41EA0421798002F13401A1
:10496000694411F8204C02F135010DEB010010F8FB
:10497000201C41EA0421B9800632D2B2298841F0D4
:104980000801298013F4C07F2FD002F1300169445F
:1049900011F8204C02F131010DEB010010F8201C40
:1049A00041EA0421318002F13201694411F8204CBE
:1049B00002F133010DEB010010F8201C41EA042143
:1049C000718002F13401694411F8204C02F1350183
:1049D0000DEB010010F8201C41EA0421B1800632E1
:1049E000D2B2298841F07001298013F0030F06D15B
:1049F0004046FFF7D0F848460CB0BDE8F08704AB5E
:104A00009818FFF711FAF3E74FF0FF39F3E700BF0B
:104A1000580A002010B504460E4B18784FF47A73EC
:104A2000B3FBF0F30C4A1068B0FBF3F000F09AF817
:104A300068B90F2C01D901200AE0002221464FF06D
:104A4000FF3000F057F8054B1C60002000E001200B
:104A500010BD00BF3C0000200000002040000020EE
:104A600008B5074A136843F010031360032000F0F1
:104A70002FF80F20FFF7CEFFFDF774FA002008BDD6
:104A800000200240034A1168034B1B780B4413605B
:104A9000704700BF680A00203C000020014B1868E6
:104AA000704700BF680A002038B50446FFF7F6FFDC
:104AB0000546B4F1FF3F02D0044B1B781C44FFF7BE
:104AC000EDFF401BA042FAD338BD00BF3C000020E0
:104AD000074AD36823F4E0631B041B0C000200F4B4
:104AE000E060034343F0BF6343F40033D360704797
:104AF00000ED00E000B5194BDB68C3F30223C3F1FE
:104B0000070CBCF1040F28BF4FF0040C03F1040E96
:104B1000BEF1060F18D9033B4FF0FF3E0EFA0CFC16
:104B200021EA0C0199400EFA03F322EA0303194328
:104B300000280BDB0901C9B200F1604000F56140BB
:104B400080F800135DF804FB0023E5E700F00F0098
:104B50000901C9B2024B1954F4E700BF00ED00E0AF
:104B600014ED00E00138B0F1807F0BD24FF0E0236C
:104B70005861054AF02182F823100020986107222D
:104B80001A6170470120704700ED00E070B582B0F7
:104B90000024A446A6E0804DAA4210D007D97F4D3C
:104BA000AA420CD005F58035AA4208D013E0A5F53D
:104BB0008015AA4203D005F57025AA4207D18A685C
:104BC000002A58D0012A51D04361082403E0A5F5FA
:104BD0008015AA42F3D0BEF1FF0F4ED80646BEF1B3
:104BE000FF0F4CD84FEA8C0233680F25954023EA1B
:104BF000050304FA02F2134333604B6813F0805F3D
:104C00006ED0674B9A6942F001029A619B6903F08A
:104C100001030193019B4FEA9C02951C614B53F8E1
:104C200025600CF003039D000F23AB4026EA03062A
:104C30005D4B984229D003F58063984200F08E8046
:104C400003F58063984200F08B8003F580639842FF
:104C500019D004231AE0CC68BDE7CC680434BAE765
:104C6000CC680834B7E7CC680C34B4E70361082497
:104C7000B1E70024AFE70424ADE7061DAFE7ACF1D0
:104C800008029200B0E7032300E00023AB40334367
:104C90000232444D45F822304B6813F4803F61D016
:104CA000424A136843EA0E0313604B6813F4003F53
:104CB0005ED03E4A536843EA0E0353604B6813F4D8
:104CC000801F5BD0394A936843EA0E0393604B68B8
:104CD00013F4001F58D0354AD36843EA0E03D3605B
:104CE0000CF1010C0A6832FA0CF353D0012303FAD9
:104CF0000CF302EA030E33EA0202F1D14A68122AE7
:104D00003FF649AF122A3FF666AF01A555F822F0EB
:104D1000BF4B0008574C0008614C0008734C00085A
:104D2000D74B0008D74B0008D74B0008D74B0008DB
:104D3000D74B0008D74B0008D74B0008D74B0008CB
:104D4000D74B0008D74B0008D74B0008D74B0008BB
:104D5000D74B00085B4C0008674C0008012395E71F
:104D6000022393E7114A136823EA0E0313609CE7BA
:104D70000E4A536823EA0E0353609FE70B4A936879
:104D800023EA0E039360A2E7084AD36823EA0E03DE
:104D9000D360A5E702B070BD000022100000311002
:104DA00000100240000001400008014000040140E2
:104DB0008368194201D001207047002070470AB172
:104DC00001617047090401617047000082B0084B1F
:104DD0001B68084AA2FB03235B0A00FB03F3019351
:104DE00000BF019B5A1E0192002BF9D102B07047FF
:104DF00000000020D34D6210002800F0F18170B552
:104E000082B00446036813F0010F2CD0994B5B6805
:104E100003F00C03042B1DD0964B5B6803F00C03CE
:104E2000082B12D06368B3F5803F41D0002B55D1D9
:104E300003F1804303F504331A6822F480321A60C8
:104E40001A6822F480221A6037E08A4B5B6813F4F8
:104E5000803FE7D0874B1B6813F4003F03D06368A3
:104E6000002B00F0BF81236813F0020F75D0814B37
:104E70005B6813F00C0F5FD07E4B5B6803F00C0394
:104E8000082B54D02369002B00F08A807A4B012232
:104E90001A60FFF703FE0546764B1B6813F0020FFE
:104EA00075D1FFF7FBFD401B0228F5D903209EE1D9
:104EB000704A136843F480331360636843B3FFF7A9
:104EC000EDFD05466B4B1B6813F4003FCBD1FFF79C
:104ED000E5FD401B6428F5D9032088E1B3F5A02F38
:104EE00009D0644B1A6822F480321A601A6822F4DE
:104EF00080221A60E1E703F18043A3F53C331A688E
:104F000042F480221A601A6842F480321A60D4E7B0
:104F1000FFF7C4FD0546574B1B6813F4003FA2D0B2
:104F2000FFF7BCFD401B6428F5D903205FE1514B1E
:104F30005B6813F4803FA5D14E4B1B6813F0020F42
:104F400003D02369012B40F04F814A4A136823F0B4
:104F5000F803616943EAC1031360236813F0080F83
:104F600033D0A369002B5CD0434B0122C3F88024CB
:104F7000FFF794FD05463F4B5B6A13F0020F21D10A
:104F8000FFF78CFD401B0228F5D903202FE1394A99
:104F9000136823F0F803616943EAC1031360DCE797
:104FA000354B00221A60FFF779FD0546314B1B682F
:104FB00013F0020FD1D0FFF771FD401B0228F5D985
:104FC000032014E10120FFF701FF236813F0040F11
:104FD00000F09680274BDB6913F0805F34D1254BBE
:104FE000DA6942F08052DA61DB6903F080530193A1
:104FF000019B0125214B1B6813F4807F26D0E368B9
:10500000012B3DD0002B53D103F1804303F5043332
:105010001A6A22F001021A621A6A22F004021A6263
:1050200033E0154B0022C3F88024FFF737FD054617
:10503000104B5B6A13F0020FC7D0FFF72FFD401B28
:105040000228F5D90320D2E00025D3E70B4A1368E4
:1050500043F480731360FFF721FD0646074B1B687E
:1050600013F4807FCBD1FFF719FD801B6428F5D99D
:105070000320BCE0001002400000424200700040EB
:105080005F4A136A43F001031362E36833B3FFF727
:1050900005FD06465A4B1B6A13F0020F2FD1FFF78E
:1050A000FDFC801B41F288339842F3D903209EE037
:1050B000052B09D0524B1A6A22F001021A621A6AB1
:1050C00022F004021A62E0E74D4B1A6A42F0040231
:1050D0001A621A6A42F001021A62D6E7FFF7DEFC92
:1050E0000646474B1B6A13F0020F08D0FFF7D6FCA9
:1050F000801B41F288339842F3D9032077E0E5B969
:10510000E369002B72D03E4A526802F00C02082A72
:1051100056D0022B17D03B4B00221A66FFF7BEFC7D
:105120000446374B1B6813F0007F47D0FFF7B6FCEF
:10513000001B0228F5D9032059E0314AD36923F036
:105140008053D361DCE72F4B00221A66FFF7A6FCE1
:1051500005462B4B1B6813F0007F06D0FFF79EFC23
:10516000401B0228F5D9032041E0236AB3F5803FB4
:105170001AD023494B6823F47413226A606A0243ED
:1051800013434B601F4B01221A66FFF787FC04464E
:105190001B4B1B6813F0007F0ED1FFF77FFC001B39
:1051A0000228F5D9032022E0154A536823F400337E
:1051B000A1680B435360DCE7002018E0002016E0F4
:1051C000012B16D00E4B5B6803F48031226A9142AA
:1051D00011D103F47013626A93420ED1002006E0ED
:1051E00001207047012002E0012000E0002002B011
:1051F00070BD0120FBE70120F9E70120F7E700BFC0
:105200000010024000004242014B0122DA64704764
:105210000000424286B0174B0FCB0DF1180C0CE981
:105220000F0040F20123ADF80430134B5B6803F02C
:105230000C02082A02D0114806B07047C3F383421B
:1052400018326A4412F8100C13F4803F0DD00A4B48
:105250005B68C3F3404318336B4413F8143C074AAC
:1052600002FB00F0B0FBF3F0E6E7054B03FB00F0B8
:10527000E2E700BF5CDD00080010024000127A0087
:1052800000093D00002800F0A08070B50D460446DE
:10529000524B1B6803F007038B420BD24F4A136833
:1052A00023F007030B431360136803F007038B42DB
:1052B00040F08D80236813F0020F17D013F0040F15
:1052C00004D0474A536843F4E0635360236813F003
:1052D000080F04D0424A536843F460535360404A75
:1052E000536823F0F003A1680B435360236813F065
:1052F000010F31D06368012B20D0022B25D0384A12
:10530000126812F0020F64D035494A6822F0030295
:1053100013434B60FFF7C2FB0646314B5B6803F05B
:105320000C036268B3EB820F16D0FFF7B7FB801B4C
:1053300041F288339842F0D9032045E0284A1268A8
:1053400012F4003FE0D101203EE0254A126812F03D
:10535000007FD9D1012037E0204B1B6803F0070301
:10536000AB420AD91D4A136823F007032B4313608D
:10537000136803F00703AB422DD1236813F0040F29
:1053800006D0174A536823F4E063E1680B43536087
:10539000236813F0080F07D0114A536823F46053B1
:1053A000216943EAC1035360FFF734FF0C4B5B688C
:1053B000C3F303130B4AD35CD8400B4B18600B4B61
:1053C0001868FFF727FB002070BD012070470120FF
:1053D000FAE70120F8E70120F6E700BF00200240CD
:1053E00000100240C0CE0008000000204000002055
:1053F000014B1868704700BF0000002008B5FFF798
:10540000F7FF044B5B68C3F30223034AD35CD84025
:1054100008BD00BF00100240D0CE000808B5FFF75D
:10542000E7FF044B5B68C3F3C223034AD35CD84055
:1054300008BD00BF00100240D0CE00087047000039
:1054400008B5064B9B6813F0800F00D108BDFFF72D
:10545000F5FF024B80229A72F8E700BF001002406D
:1054600010B504460268136923F44053C1680B4326
:10547000136183680269134342691A430168CB6868
:1054800023F4B05323F00C031343CB600268536939
:1054900023F4407381690B4353610268134B9A42B2
:1054A00020D0FFF7ABFF024602EB820202EB820242
:1054B00063689B00B2FBF3F20D48A0FB023149097F
:1054C000642303FB11231B013233A0FB03235B097D
:1054D00003F0F00202EB011203F00F032168134402
:1054E0008B6010BDFFF79AFF0246DDE700380140F0
:1054F0001F85EB512DE9F84305460F4616469946A0
:10550000DDF820802C68246837EA04030CBF4FF0D4
:10551000010C4FF0000CB4451FD1B8F1FF3FF1D0A2
:10552000B8F1000F05D0FFF7B9FAA0EB090040452C
:10553000E8D92A68D36823F4D073D3602A68536902
:1055400023F001035361202385F83D3085F83E3078
:10555000002385F83C30032000E00020BDE8F883FC
:1055600058B310B5044690F83D300BB3242384F8AB
:105570003D302268D36823F40053D3602046FFF700
:105580006FFF2268136923F4904313612268536903
:1055900023F02A0353612268D36843F40053D36095
:1055A00000202064202384F83D3084F83E3010BD74
:1055B00080F83C30FCF7DEFED8E7012070472DE98B
:1055C000F04182B01E4690F83D30DBB2202B54D122
:1055D00004460D469046002953D0002A53D090F837
:1055E0003C30012B51D0012380F83C300023036470
:1055F000212380F83D30FFF751FA0746A4F82480B4
:10560000A4F82680A368B3F5805F05D04FF00008AA
:10561000002384F83C3012E0236913B14FF00008F6
:10562000F6E7A8460025F3E738F8023B2268C3F303
:1056300008035360E28C92B2013A92B2E284E38CA6
:105640009BB273B100963B46002280212046FFF7B3
:1056500051FFE0B9002DE7D015F8012B23685A60FF
:10566000E8E700963B46002240212046FFF742FF34
:1056700078B9202384F83D3000E0022002B0BDE874
:10568000F0810120FAE70120F8E70220F6E7032085
:10569000F4E70320F2E72DE9F04182B01E4690F8CE
:1056A0003E30DBB2202B5CD104460D4690460029EB
:1056B0005BD0002A5BD090F83C30012B59D00123FD
:1056C00080F83C3000230364222280F83E200363EC
:1056D000FFF7E4F90746A4F82C80A4F82E80A3680D
:1056E000B3F5805F05D04FF00008002384F83C300C
:1056F00017E0236913B14FF00008F6E7A84600252C
:10570000F3E723685B68C3F3080328F8023B03E070
:1057100023685B682B700135E28D92B2013A92B238
:10572000E285E38D9BB2BBB100963B46002220216F
:105730002046FFF7DFFEF0B9002DE2D0A368B3F5F5
:10574000805FE5D013B92369002BE1D023685B6843
:1057500003F07F032B70DEE7202384F83E30002027
:1057600000E0022002B0BDE8F0810120FAE701204C
:10577000F8E70220F6E70320F4E700000C480D49A3
:105780000D4A002302E0D458C4500433C4188C429C
:10579000F9D30A4A0A4C002301E013600432A24202
:1057A000FBD3FCF74BFC00F015F8FBF7F9FF704753
:1057B00000000020F0090020F4E10008F0090020BA
:1057C000B40A0020FEE70000014B1868704700BFD4
:1057D0004400002070B50D4E0D4D761BB61006D05E
:1057E000002455F8043B01349847A642F9D1094EEC
:1057F000094D06F039FF761BB61006D0002455F887
:10580000043B01349847A642F9D170BDE8E1000895
:10581000E8E10008F0E10008E8E10008032A10B51B
:1058200016D940EA010C1CF0030F04460B4622D1A6
:1058300019462046D1F800E0D0F800C00433F44502
:1058400004F1040417D1043A032A20461946EFD87C
:10585000541EA2B100F1FF3C013901E0C3180CD085
:105860001CF801EF11F8012FA4EB0C039645F5D0BD
:10587000AEEB020010BD541EECE7184610BD1046FA
:1058800010BD00BF830730B548D0541E002A3FD05A
:105890000346CAB201E0013C3AD303F8012B9D074D
:1058A000F9D1032C2DD9CDB245EA05250F2C45EAB7
:1058B000054536D9A4F1100222F00F0C03F1200E99
:1058C000E6444FEA121C03F1100242E9045542E992
:1058D000025510327245F8D10CF1010214F00C0F90
:1058E00003EB021204F00F0C13D0ACF1040323F00D
:1058F00003030433134442F8045B9342FBD10CF0DE
:1059000003042CB1CAB21C4403F8012B9C42FBD106
:1059100030BD64461346002CF4D1F9E70346144623
:10592000BFE71A46A446E0E70FB400B5074A83B0C4
:1059300004AB106853F8042B8168019300F064F9FC
:1059400003B05DF804EB04B0704700BF44000020D2
:1059500030B5054689B008460C4600F027F901210C
:105960000223214A04940692AA6B04AC05900844D1
:1059700001940791AC680293039022B3636E13F015
:10598000010FB4F90C309AB201D1980525D59104D4
:1059900006D4626E43F4005322F40052A38162667F
:1059A000284601AA214603F053FA636E002814BF6B
:1059B0004FF0FF350A25DA0702D4A3899B0506D5E7
:1059C000284609B030BD284603F04AF8D6E7A06D56
:1059D00003F0E4FB284609B030BDA06D03F0DCFB0A
:1059E000B4F90C309AB2D2E7FCCE0008024B014663
:1059F0001868FFF7ADBF00BF440000202DE9F04359
:105A0000694C0E46D4F80080174604461D4683B004
:105A1000B8F1000F03D0D8F83830002B77D0022F20
:105A200005D0012F00F2AC80002DC0F2A980636E7A
:105A3000DA0752D52146404602F0DEFF216B41B124
:105A400004F14003994202D0404603F001F90023DB
:105A500023630023B4F90CC0A3611CF0800F6360C2
:105A600064D12CF44A6C2CF0030C022FA4F80CC067
:105A70006AD001AB214640466A4603F001FCA38987
:105A80001843A081002D2FD0002E2ED0D8F838300A
:105A9000002B38D0009BC4E90465AB42B4F90C304C
:105AA00026601CBF43F40063A381012F04BF43F0B1
:105AB0000103A3819AB213F008032CD0D1075DD55E
:105AC00000216D42A561656EA16015F0010527D02A
:105AD0000025284603B0BDE8F083A3899B05A9D41F
